:020000040000FA
:100000000C9498000C94C0000C94C0000C94C00098
:100010000C94C0000C94C0000C94C0000C94C00060
:100020000C94C0000C94C0000C94EC080C945B0978
:100030000C94C0000C94C0000C94C0000C94C00040
:100040000C94C0000C94C0000C94C0000C94C00030
:100050000C94C0000C94C0000C94C0000C94E50BF0
:100060000C94C0000C94B30B0C948D0B0C94C0003A
:100070000C94C0000C94C0000C94C0000C94C00000
:100080000C94C0000C94C0000C94C0000C94C000F0
:100090000C94C0000C94C0000C94C0000C94C000E0
:1000A0000C94C0000C94C0000C94C00072756E2DAE
:1000B0006272696467650A000A000A00080B0002A0
:1000C00002020000090400000102020000052400F1
:1000D0001001052401010104240206052406000183
:1000E0000705810310004009040100020A00000016
:1000F00007050202400000070583024000000403D8
:10010000090412010002EF02014041234180000175
:100110000102030141726475696E6F204C4C43000B
:1001200041726475696E6F2059756E002F0CB510A1
:1001300011241FBECFEFDAE0DEBFCDBF24E0AEE872
:10014000B3E001C01D92A53BB207E1F713E0A0E0C8
:10015000B1E0EAE0F6E202C005900D92AE38B107D8
:10016000D9F710E0C7E9D0E004C02197FE010E9452
:100170000011C639D107C9F70E94880C0C94F812F7
:100180000C940000FC018091AC03882311F13FB76F
:10019000F89482E08093E9002091F200822F90E0B1
:1001A0001816190614F481E090E0882339F0289895
:1001B00044E64093AB034091F1004083222339F0A1
:1001C0002091F200211103C02BE62093E8003FBFED
:1001D00008958FEF9FEF08952FB7F89483E08093F1
:1001E000E9009091E800892F807295FF04C09091FA
:1001F000F20080E4891B2FBF08958091A303811131
:100200000DC082E080939F0384E08093A00310924E
:10021000A2031092A10381E08093A3038FE993E0EE
:100220000895CF93DF931F92CDB7DEB76983DC01CA
:10023000ED91FC910280F381E02D41E050E0BE01A0
:100240006F5F7F4F09950F90DF91CF91089583E005
:100250008093E9008091F200882319F08AE380936B
:10026000E80008950E94EC0090E00895CF93DF939A
:100270001F92CDB7DEB7FC018485958597FD08C038
:100280002FEF3FEF358724870F90DF91CF910895AF
:10029000CE0101960E94C200019719F4898190E075
:1002A000F3CF8FEF9FEFF0CF0F931F93CF93DF9399
:1002B0001F92CDB7DEB78C01FC018485958597FF31
:1002C0000BC0CE0101960E94C200019771F4898192
:1002D00090E0F80195878487F801848595850F90D3
:1002E000DF91CF911F910F9108958FEF9FEFF1CF85
:1002F000FC018485958597FD0BC09FB7F89482E03B
:100300008093E9008091F2009FBF90E001960895EC
:100310009FB7F89482E08093E9008091F2009FBF3C
:1003200090E008954091990350919A03209197038A
:100330003091980342175307B4F49091E8009570F8
:10034000E1F39091E80092FD19C08093F100809153
:10035000990390919A0301968F739927892B19F429
:100360008EEF8093E8008091990390919A03019613
:1003700090939A038093990381E0089580E0089513
:10038000EF92FF920F931F93CF93DF93F82E192FC5
:10039000E62E042F81E0860F880F0E94920183E0F1
:1003A0000E949201CF2DD12FEC0EFD2EF11CCE1507
:1003B000DF05B9F007FF13C0FE0184910E9492018E
:1003C000182F80E00E949201812321968111EFCFA6
:1003D000DF91CF911F910F91FF90EF900895888149
:1003E000EDCF81E0F5CFDF92EF92FF920F931F9355
:1003F000CF93DF93D82E8A01EB017B01E40EF51E2B
:10040000CE15DF0559F0D7FE12C0FE0184910E947F
:10041000920121968111F4CF0FEF1FEFC801DF91F8
:10042000CF911F910F91FF90EF90DF9008958881F9
:10043000EECF0F931F93CF93DF931F92CDB7DEB70D
:1004400082E0898342E450E06CEB70E080E80E9437
:10045000F3010E94FD00DC0112960D911C91011523
:10046000110589F0D801ED91FC910280F381E02D16
:10047000BE016F5F7F4FC801099597FD04C0F80169
:1004800000851185ECCF89810F90DF91CF911F916D
:100490000F910895615030F02091F100FC0120830C
:1004A0000196F8CF289884E68093AB030895EF92E5
:1004B000FF920F931F93CF93DF938C017B01D0E0CA
:1004C000C0E0F701EC0FFD1F6491662361F0D801D5
:1004D000ED91FC910190F081E02DC8010995892BE7
:1004E00011F02196EECFCE01DF91CF911F910F91A8
:1004F000FF90EF900895AF92BF92CF92DF92EF926C
:10050000FF920F931F93CF93DF936C017B018B01BD
:10051000040F151FEB015E01AE18BF08C017D1070D
:1005200059F06991D601ED91FC910190F081E02D97
:10053000C6010995892B79F7C501DF91CF911F91EC
:100540000F91FF90EF90DF90CF90BF90AF90089504
:10055000FC01538D448D252F30E0842F90E0821BC9
:10056000930B541710F0CF96089501970895FC014E
:10057000918D828D981761F0A28DAE0FBF2FB11DA6
:100580005D968C91928D9F5F9F73928F90E00895FE
:100590008FEF9FEF0895FC01918D828D981731F0B8
:1005A000828DE80FF11D858D90E008958FEF9FEF0C
:1005B0000895FC01918D228D892F90E0805C9F4FE2
:1005C000821B91098F73992708958DEF93E00E9404
:1005D000D90221E0892B09F420E0822F089580E0E0
:1005E00090E0892B29F00E94E50281110C94000013
:1005F0000895FC01A48DA80FB92FB11DA35ABF4FB8
:100600002C91848D90E001968F739927848FA68911
:10061000B7892C93A089B1898C9182748C93938D26
:10062000848D981306C00288F389E02D80818F7D28
:1006300080830895EF92FF920F931F93CF93DF93E0
:10064000EC0181E0888F9B8D8C8D981319C0E8890F
:10065000F989808185FF14C09FB7F894EE89FF89DE
:100660006083E889F9898081827480839FBF81E0FB
:1006700090E0DF91CF911F910F91FF90EF9008953F
:10068000F62E0B8D10E00F5F1F4F0F731127E02E1A
:100690008C8D8E110CC00FB607FCFACFE889F98952
:1006A000808185FFF5CFCE010E94F902F1CFEB8D5D
:1006B000EC0FFD2FF11DE35AFF4FF0829FB7F89426
:1006C0000B8FEA89FB8980818062CFCFCF93DF9344
:1006D000EC01888D8823B9F0AA89BB89E889F9895A
:1006E0008C9185FD03C0808186FD0DC00FB607FC8F
:1006F000F7CF8C9185FFF2CF808185FFEDCFCE01C2
:100700000E94F902E9CFDF91CF9108953FB7F894A5
:100710008091930390919403A0919503B0919603D7
:1007200026B5A89B05C02F3F19F00196A11DB11D4C
:100730003FBFBA2FA92F982F8827BC01CD01620F88
:10074000711D811D911D42E0660F771F881F991F43
:100750004A95D1F708958F929F92AF92BF92CF9210
:10076000DF92EF92FF924B015C010E9486036B01C6
:100770007C010E9486036C197D098E099F09683EE1
:10078000734081059105A8F321E0821A9108A10820
:10079000B10888EEC80E83E0D81EE11CF11C81145C
:1007A0009104A104B10429F7FF90EF90DF90CF905E
:1007B000BF90AF909F908F9008958F929F92AF922D
:1007C000BF92CF92DF92EF92FF920F931F93CF933E
:1007D000DF936C017B018A0180910B01882309F46E
:1007E0005CC08091AC03882309F457C080919E03BC
:1007F00080FF05C08091E00082608093E000E80106
:10080000B12C8AEFA82E93E0892E2AE3922E20970E
:1008100011F4BB20D9F10E94EC0081110AC0AA9406
:10082000AA20D9F161E070E080E090E00E94AB0383
:10083000EECF8C171D0611F00CF08C2F9FB7F8949B
:100840008092E9002091E80025FD02C09FBFDFCF24
:10085000282F30E0C21BD30BF701815020F04191CB
:100860004093F100FACFE20EF31EBB2021F09092EC
:10087000E800B12CEBCF8091E80085FDE7CF9092A6
:10088000E800BB24B394209709F3F3CF5D9884E686
:1008900080939D03101611063CF081E090E0F60174
:1008A0009383828310E000E0C801DF91CF911F9114
:1008B0000F91FF90EF90DF90CF90BF90AF909F90FF
:1008C0008F9008950895CF93DF93EC018D819E81E1
:1008D000DC01ED91FC910084F185E02D099518165D
:1008E000190654F48D819E81DC01ED91FC91028406
:1008F000F385E02D0995EACFDF91CF9108958F928E
:100900009F92AF92BF92CF92DF92EF92FF92CF93DE
:10091000DF93EC018FB7F89480908F039090900351
:10092000A0909103B09092038FBF6B01F12CE12C4A
:100930008D819E81DC01ED91FC910284F385E02D97
:10094000099597FF16C02FB7F89480918F03909167
:100950009003A0919103B09192032FBF8819990938
:10096000AA09BB098C159D05AE05BF0508F38FEFDD
:100970009FEFDF91CF91FF90EF90DF90CF90BF90EE
:10098000AF909F908F900895FC012381348126279A
:10099000022E2295207F2025032E322F22952F70A4
:1009A0000226269532272327220F220F220F2025E9
:1009B0003483238308952F923F924F925F926F92D8
:1009C0007F928F929F92AF92BF92CF92DF92EF92DF
:1009D000FF920F931F93CF93DF93CDB7DEB72A9784
:1009E0000FB6F894DEBF0FBECDBF9A8789875B0133
:1009F000290137011A01200E311E3A8219828824FA
:100A00008A94982C9A01260F371F3E832D83C801A4
:100A1000840D951D98878F83A985BA8518968C912A
:100A2000B981B81708F040C1E985FA8594828382BC
:100A300085819681DC01ED91FC910190F081E02DA2
:100A40006FEF09956FEF89859A850E94C404E98547
:100A5000FA8585819681DC01ED91FC910190F08110
:100A6000E02DA985BA856C910995E985FA856081A3
:100A7000CF010E94C404A985BA8515968D919C91D9
:100A8000DC01ED91FC910190F081E02D6A810995E6
:100A90006A8189859A850E94C404E985FA858581E1
:100AA0009681DC01ED91FC910190F081E02D622DA9
:100AB0000995622D89859A850E94C4048501E9857E
:100AC000FA8585819681D8016D918D01DC01ED91CA
:100AD000FC910190F081E02D0995F801319760813A
:100AE00089859A850E94C404ED81FE810E171F0737
:100AF00031F78201A985BA8515968D919C91DC010B
:100B0000ED91FC910190F081E02D2F813885201727
:100B1000310761F0D8016D918D010995F801319788
:100B2000608189859A850E94C404E4CFA985BA852D
:100B300014966C910995E985FA8585819681DC0189
:100B4000ED91FC910190F081E02DA985BA85139675
:100B50006C91099568EC70E089859A850E947F0404
:100B60008F3F910509F092C0E985FA8594828382CE
:100B70006FEFCF010E94C40465E070E089859A851B
:100B80000E947F04A985BA856C916817190609F03F
:100B90007DC0CD010E94C4046AE070E089859A8519
:100BA0000E947F047C0197FD71C0682F89859A851A
:100BB0000E94C4046AE070E089859A850E947F04DF
:100BC0008C0197FD63C0682F89859A850E94C404B3
:100BD000EC821B82EB81FC810E0F1F1FF12CE12C9C
:100BE00065E070E089859A850E151F05A1F0EC146B
:100BF000FD0489F00E947F0497FD09C0F301EE0D0A
:100C0000FF1D8083682F89859A850E94C404FFEFA9
:100C1000EF1AFF0AE5CF0E947F047C0197FD36C0E2
:100C200065E070E089859A850E947F0497FD2EC05B
:100C3000FE2CEE248E0D9F1DA985BA8513962D914D
:100C40003C9114978217930709F58C918F5F8C93D1
:100C5000C801C016D10608F4C6012A960FB6F8944A
:100C6000DEBF0FBECDBFDF91CF911F910F91FF90DF
:100C7000EF90DF90CF90BF90AF909F908F907F903C
:100C80006F905F904F903F902F900895B981BF5F14
:100C9000B98364E670E080E090E00E94AB03898550
:100CA0009A850E946304B8CE8FEF9FEFD6CFCF9284
:100CB000DF92EF92FF920F931F936801790110E08A
:100CC00000E030E020E00E94DB041F910F91FF90D4
:100CD000EF90DF90CF900895EF92FF920F931F93C4
:100CE000CF93DF9300D01F92CDB7DEB7FC012289EE
:100CF000211118C07C01138A8FE4898380E48B83DF
:100D000086858A839F012C5E3F4F00E410E043E01C
:100D100050E0BE016F5F7F4F848595850E94570626
:100D2000F701828B0F900F900F90DF91CF911F9161
:100D30000F91FF90EF900895CF93DF93EC010E9405
:100D40006C068A8990E0DF91CF910895CF93DF936D
:100D5000EC010E946C068A89882341F08B89C80FB8
:100D6000D11D8C8990E0DF91CF9108958FEF9FEF97
:100D7000FACFCF93DF93EC010E946C068A89882317
:100D800069F081508A8B8B8991E0980F9B8BC80FFB
:100D9000D11D8C8990E0DF91CF9108958FEF9FEF67
:100DA000FACFCF92DF92EF92FF920F931F93D12C45
:100DB000C12CF12CE12C10E000E030E020E00E949A
:100DC000DB041F910F91FF90EF90DF90CF9008957B
:100DD0000F931F93CF93DF9300D0CDB7DEB78C0175
:100DE000FC018189882369F087E7898386858A8366
:100DF00042E050E0BE016F5F7F4F848595850E9481
:100E0000D106F801118A0F900F90DF91CF911F91B9
:100E10000F910895CF93DF9300D01F92CDB7DEB727
:100E200029E42983FC0126852A836B8343E050E073
:100E3000BE016F5F7F4F848595850E94D10681E05A
:100E400090E00F900F900F90DF91CF91089590E078
:100E500080E008950F931F93CF93DF93EC01888177
:100E60009981009759F02A813B812617370730F086
:100E700081E0DF91CF911F910F9108958B016F5FFA
:100E80007F4F0E942B12009759F0998388831B8310
:100E90000A832C813D81232B59F7FC011082E8CF76
:100EA00080E0E7CFEF92FF920F931F93CF93DF93F2
:100EB0006115710541F480E0DF91CF911F910F9191
:100EC000FF90EF90089541155105B1F07B01EC01C1
:100ED0000C811D81040F151FB8010E942A07882369
:100EE00051F3288139818C819D81B701820F931F35
:100EF0000E94F1121D830C8381E0DECF0F931F93BC
:100F0000CF93DF93EC018B0141E050E069E571E0A4
:100F10008F8598890E945207F8014481558160812C
:100F200071818F859889DF91CF911F910F910C94DA
:100F30005207CF93DF93EC0188819981009711F0DC
:100F40000E94A211198218821D821C821B821A82A1
:100F5000DF91CF910895CF93DF93EC01FB010190D6
:100F60000020E9F73197AF01461B570B0E9452074B
:100F7000811103C0CE010E949907CE01DF91CF916C
:100F80000895CF93DF93EC01FB014481558160818B
:100F900071810E945207811103C0CE010E949907FE
:100FA000CE01DF91CF910895EF92FF920F931F939F
:100FB000CF93DF93EC017B018A01BA010E942A07DB
:100FC00081110BC0CE010E949907CE01DF91CF9114
:100FD0001F910F91FF90EF9008951D830C83B7012F
:100FE000888199810E94F112F0CFFB01DC011196FA
:100FF0001C921E9213961C921E92129715961C928A
:101000001E9214978617970749F0608171816115C8
:10101000710521F0448155810C94D4070895FC0199
:10102000118210821382128215821482FB010190B8
:101030000020E9F73197AF01461B570B0C94D407FA
:10104000FC0180819181009711F00C94A211089508
:10105000AF92BF92CF92DF92EF92FF920F931F93C6
:10106000CF93DF93CDB7DEB728970FB6F894DEBFE6
:101070000FBECDBF5C017B016BE571E0CE01019637
:101080000E940F08C5010E94E80686E090E00E94D9
:1010900006118C01BE016F5F7F4F0E94F507D501DD
:1010A00050961C930E931F97CE0101960E94200824
:1010B00064E671E0CE0101960E940F08BE016F5FE9
:1010C0007F4FC5010E947E07CE0101960E94200835
:1010D000B701C5010E947E0782E58F83D5011F9667
:1010E000ED91FC915097048115812081318142E07E
:1010F000C42ED12CFE0131967F0141E050E0BE01AB
:10110000695F7F4F1C968D919C910E94DB048A81C0
:10111000D5011E968C931E971F960D911C9101155B
:10112000110531F0C8010E942008C8010E94A211D7
:10113000F501108A17868981811102C081E0818BB7
:1011400032E7F32EF982D5011E968C911E978A8381
:1011500001E010E09E01295F3F4F42E050E0BE01F8
:101160006F5F7F4F1C968D919C910E9457068F81D7
:10117000813039F464E670E080E090E00E94AB03D7
:10118000E1CF87E58F83F5018685888702E010E04F
:101190009E012F5F3F4F42E050E0BE01695F7F4FED
:1011A000848595850E945706898190E0982F88272D
:1011B0002A81820F911D28960FB6F894DEBF0FBECC
:1011C000CDBFDF91CF911F910F91FF90EF90DF90F6
:1011D000CF90BF90AF9008951F920F920FB60F92CD
:1011E00011248F939F938091E1009091E100937F70
:1011F0009093E10083FF0FC01092E90091E090937B
:10120000EB001092EC0092E39093ED001092AC038F
:1012100098E09093F00082FF22C093E09093E90061
:101220009091F200992319F09AE39093E80090913D
:101230009D03992341F090919D03915090939D03BC
:10124000911101C05D9A9091AB03992341F0909167
:10125000AB0391509093AB03911101C0289A84FF86
:1012600018C08091E2008E7E81608093E2008091C0
:10127000E1008F7E8093E10080919E038E7E8061ED
:1012800080939E039F918F910F900FBE0F901F90A0
:10129000189580FFF7CF8091E2008E7E8061809369
:1012A000E2008091E1008E7E8093E10080919E03B8
:1012B0008E7E8160E5CF1F920F920FB60F921124A0
:1012C000CF92DF92EF92FF920F931F932F933F9352
:1012D0004F935F936F937F938F939F93AF93BF933E
:1012E000EF93FF93CF93DF93CDB7DEB76C97DEBF5D
:1012F000CDBF1092E9008091E80083FF25C068E02F
:10130000CE0145960E944A0282EF8093E8008D89C3
:1013100087FF39C09091E80090FFFCCF982F90761E
:1013200009F034C19E894F89588D2F89F88C91110D
:1013300031C0803861F580919C038093F100109258
:10134000F1008EEF8093E8006C960FB6F894DEBF44
:101350000FBECDBFDF91CF91FF91EF91BF91AF91C4
:101360009F918F917F916F915F914F913F912F91BD
:101370001F910F91FF90EF90DF90CF900F900FBED5
:101380000F901F9018959EEF9093E800C7CF109292
:10139000F100D5CF913059F48111D3CF41305105AF
:1013A00081F680919C038D7F80939C03CACF9330FC
:1013B00049F48111C6CF4130510519F680919C0343
:1013C0008260F2CF953041F48091E80080FFFCCF3D
:1013D00020682093E300B5CF963009F0A9C00B8DAB
:1013E0001C8D22E01092E90010929A03109299034A
:1013F000F2122EC010929803109297030E941902C5
:101400001F8299E09983FA8291E09E8390EA9887FF
:101410009AEF99872091990330919A03275F3F4F64
:101420003C832B838D831092E90010929A031092D3
:101430009903109398030093970349E050E0BE018D
:101440006F5F7F4F80E00E94F3010E94190279CF05
:1014500010939803009397030E94FD00DC011296FD
:101460000D911C910115110509F451C1D801ED919F
:10147000FC910480F581E02DBE016B5E7F4FC801B9
:101480000995009709F03EC1F80100851185EACF62
:10149000F3E0FF120EC08F89882309F440C0823028
:1014A00061F440E86BE080E291E00E94C0018111AC
:1014B00048CF81E28093EB0047CF813029F440E8A8
:1014C0006BE084E191E0F1CF833099F70E94FD0059
:1014D000DC011296ED90FC908E010F5F1F4F6801AA
:1014E000E114F10479F0D701ED91FC910680F781C8
:1014F000E02DB801C7010995080F111DF701E0841F
:10150000F184EECFD8011C92F60101900020E9F79A
:101510003197BF016C197D0940E0C601C6CF6EEF5F
:1015200070E0FB01449150E080E80E94F30109CF94
:10153000973009F4BECF983021F481E08093F10018
:1015400000CF993009F0FDCE837009F0B2CFEFE201
:10155000F1E081E031E096E32191222371F0809364
:10156000E9003093EB00DF0111972C912093EC0000
:101570009093ED008F5F873079F78EE78093EA00D4
:101580001092EA008F898093AC03DBCE8B8D9C8D0B
:101590001092E90010929A03109299039093980385
:1015A00080939703898D811192C08E899D89913A8C
:1015B00049F4813209F07DCF47E050E064E071E00A
:1015C00080E0B3CF913209F074CF833269F48F8910
:1015D000988DB0E0A0E08093000190930101A0936A
:1015E0000201B0930301ADCE803269F48091E8002E
:1015F00082FFFCCF67E084E091E00E944A028BEF1B
:101600008093E8009ECE823209F09BCE8F89809332
:101610000B01EEEFFFE7859194918B3F9C4D51F1CB
:10162000E0E0F8E08091040190910501A0910601AD
:10163000B0910701803B9440A105B105F1F4809180
:101640000B0180FD1AC0EE3F8AE0F80789F587E7B5
:1016500097E7918380838091600080939B0388E16A
:101660009BE00FB6F894A895809360000FBE90930E
:10167000600067CEEEEFFAE0D5CF808191818737A9
:10168000974709F05ECEA8958091600088618093AD
:10169000600080919B0380936000EE3F2AE0F20798
:1016A00089F08091FE0A9091FF0A9183808349CE50
:1016B000808191818737980751F29093FF0A809338
:1016C000FE0AC5CF1092FF0A1092FE0A3ACE0E947F
:1016D000FD00DC0112960D911C910115110509F414
:1016E000E8CED801ED91FC910190F081E02DBE0192
:1016F0006B5E7F4FC8010995811123CEF8010085EB
:101700001185EBCF181619060CF41BCED2CEF1E0E2
:10171000FF12BECE62E071E004CF1F920F920FB6AF
:101720000F9211242F933F934F935F936F937F9367
:101730008F939F93AF93BF93EF93FF938DEF93E0BE
:101740000E94F902FF91EF91BF91AF919F918F910C
:101750007F916F915F914F913F912F910F900FBEAD
:101760000F901F9018951F920F920FB60F92112491
:101770002F938F939F93EF93FF93E0910D04F0913C
:101780000E048081E0911304F091140482FD1BC0CB
:101790009081809116048F5F8F73209117048217B8
:1017A00041F0E0911604F0E0E350FC4F958F8093F8
:1017B0001604FF91EF919F918F912F910F900FBE83
:1017C0000F901F9018958081F4CF1F920F920FB643
:1017D0000F9211242F933F938F939F93AF93BF93B7
:1017E00080918F0390919003A0919103B091920307
:1017F00030918E0323E0230F2D3758F50196A11D5C
:10180000B11D20938E0380938F0390939003A09338
:101810009103B09392038091930390919403A091CC
:101820009503B09196030196A11DB11D809393037A
:1018300090939403A0939503B0939603BF91AF91B7
:101840009F918F913F912F910F900FBE0F901F90FE
:10185000189526E8230F0296A11DB11DD2CFEDEAFF
:10186000F3E01382128288EE93E0A0E0B0E084837C
:101870009583A683B78329E331E0318320832FEF5B
:101880003FEF35872487EDEFF3E0138212828483E4
:101890009583A683B7838BE491E0918380838DEC5D
:1018A00090E0958784878CEC90E09787868788EC1A
:1018B00090E0918B808B89EC90E0938B828B8AEC0B
:1018C00090E0958B848B8EEC90E0978B868B118EBD
:1018D000128E138E148EAAE9B4E01C921696FC9315
:1018E000EE93159717961C92179718961C921897B7
:1018F0001A96FC93EE93199767E671E08BEA94E0F1
:101900000E940F0860E871E085EA94E00C940F08EB
:10191000CF93DF93CDB7DEB7C257D1090FB6F89496
:10192000DEBF0FBECDBF789484B5826084BD84B520
:10193000816084BD85B5826085BD85B5816085BDCA
:1019400080916E00816080936E0010928100809182
:10195000810082608093810080918100816080930A
:10196000810080918000816080938000809191004F
:1019700082608093910080919100816080939100BA
:10198000809190008160809390008091C10084607C
:101990008093C1008091C10082608093C1008091DA
:1019A000C10081608093C1008091C30081608093F9
:1019B000C3008091C00082608093C0008091C2000B
:1019C00081608093C20080917A00846080937A0065
:1019D00080917A00826080937A0080917A008160A1
:1019E00080937A0080917A00806880937A001092C8
:1019F000AC0310929C0310929E038091D7008160EB
:101A00008093D70080EA8093D80089B5806189BD32
:101A100089B5826089BD09B400FEFDCF61E070E048
:101A200080E090E00E94AB038091D8008F7C8061C1
:101A30008093D8008091E000807F8093E0008091C7
:101A4000E1008E7E8093E1008DE08093E200559A64
:101A5000209AE091A304F091A404A089B18982E0C6
:101A60008C93A485B5851C92A685B78587E08C9359
:101A7000108EA489B58986E08C93A289B3898C9154
:101A800080618C93A289B3898C9188608C93A289A0
:101A9000B3898C9180688C930288F389E02D8081D2
:101AA0008F7D80838091A1048111C2C081E08093E9
:101AB000A1048AE994E00E94630468EE73E080E088
:101AC00090E00E94AB0380919F049091A004DC0100
:101AD000ED91FC910084F185E02D09951816190609
:101AE00044F3FF24F39482E3E82E85E0E2E1F1E0A1
:101AF000DE01AB5ABF4F01900D928A95E1F7F0924B
:101B0000A20445E050E0BE016B5A7F4F8AE994E0A1
:101B10000E94D10680919F049091A004DC01ED9178
:101B2000FC910190F081E02D63E009956AEF70E08F
:101B300080E090E00E94AB036AEB70E080919F042C
:101B40009091A0040E9457026AEF70E080E090E05C
:101B50000E94AB0368EB70E080919F049091A00419
:101B60000E94570264EF71E080E090E00E94AB03B6
:101B70006CEA70E080919F049091A0040E9457024B
:101B800064EF71E080E090E00E94AB038AE994E0AA
:101B90000E94630485E0E7E1F1E0DE011196019027
:101BA0000D928A95E1F7E092A20404E010E09E0114
:101BB000255A3F4F45E050E0BE016F5F7F4F8AE9F5
:101BC00094E00E9457068F3F980739F468EE73E05F
:101BD00080E090E00E94AB0388CF6C962FAD6C97AD
:101BE0002111FFCF049709F073C06D962FAD6D974B
:101BF0002053330B44E6429FC001439F900D1124B4
:101C00006E962FAD6E97EAE02E9F800D911D1124E8
:101C1000805E91406F962FAD6F972053330B820FEC
:101C2000931F90939C0480939B0482E38093A2046F
:101C30001C821B8288EE93E0A0E0B0E08D839E833F
:101C4000AF83B88780E291E09A8389838AE994E040
:101C50009E878D871A8A1B8A1C8A67E573E0CE01EE
:101C600083599F4F0E940F0868E871E0CE018B5A9C
:101C70009F4F0E940F086BEA74E0CE018B5A9F4F72
:101C80000E94C107BC01CE0101960E942808CE0126
:101C90008B5A9F4F0E942008CE0101960E946C062D
:101CA0008B898823C1F0CE0101960E94B906669601
:101CB0008FAF669767961FAE679741E050E0BE0111
:101CC0006B5A7F4FCE0183599F4F0E945207E4CF3A
:101CD00084E690E0A6CFAF96CEACDFACAF97C11450
:101CE000D10449F0E3960EAD1FADE39776010115DF
:101CF000110509F0F8C165EA74E0CE018B5A9F4FD7
:101D00000E94F507BE0163597F4FCE018B5A9F4F4A
:101D10000E94C107BC01CE0189599F4F0E94F5075F
:101D2000CE018B5A9F4F0E94200867E573E0CE01D9
:101D30008B5A9F4F0E940F08E3968EAD9FADE3979D
:101D4000009759F102E010E0029710F401E010E072
:101D5000AF96EEADFFADAF97E00FF11FF0801082B0
:101D6000AF966EAD7FADAF976115710509F4F7C100
:101D7000FB0101900020E9F73197AF01461B570B9B
:101D8000CE018B5A9F4F0E94D407AF968EAD9FAD68
:101D9000AF97080F191FD801FC9265EA74E0CE01D5
:101DA000855A9F4F0E94F507BE016B5A7F4FCE01A7
:101DB000855A9F4F0E94C107BC01CE018F599F4F8A
:101DC0000E94F507CE01855A9F4F0E942008CE0140
:101DD0008B5A9F4F0E9420086DE871E0CE018B5A0C
:101DE0009F4F0E940F08BE0169597F4FCE018B5A49
:101DF0009F4F0E94C107BC01CE0101960E94280896
:101E0000CE018B5A9F4F0E94200867E971E0CE01F6
:101E10008B5A9F4F0E940F08BE0169597F4FCE0118
:101E20008B5A9F4F0E94C10760EA72E00E94AB0785
:101E3000BC01CE0101960E942808CE018B5A9F4F0B
:101E40000E9420086CEB71E0CE018B5A9F4F0E94DC
:101E50000F08BE016F597F4FCE018B5A9F4F0E94D2
:101E6000C10760EA72E00E94AB07BC01CE01019697
:101E70000E942808CE018B5A9F4F0E94200861EFD4
:101E800071E0CE018B5A9F4F0E940F08BE016B5A22
:101E90007F4FCE0101960E942808CE018B5A9F4F9A
:101EA0000E94200863E272E0CE018B5A9F4F0E948D
:101EB0000F08BE016B5A7F4FCE0101960E94280881
:101EC000CE018B5A9F4F0E9420086EE472E0CE0133
:101ED0008B5A9F4F0E940F08BE016B5A7F4FCE0155
:101EE00001960E942808CE018B5A9F4F0E9420081D
:101EF0006BE772E0CE018B5A9F4F0E940F08BE0124
:101F00006B5A7F4FCE0101960E942808CE018B5A52
:101F10009F4F0E94200862EA72E0CE018B5A9F4FC9
:101F20000E940F08BE016B5A7F4FCE0101960E949E
:101F30002808CE018B5A9F4F0E94200869EC72E05E
:101F4000CE018B5A9F4F0E940F08BE016B5A7F4FE4
:101F5000CE0101960E942808CE018B5A9F4F0E9405
:101F600020086EEE72E0CE018B5A9F4F0E940F0840
:101F7000BE016B5A7F4FCE0101960E942808CE0108
:101F80008B5A9F4F0E9420086CE073E0CE018B5A61
:101F90009F4F0E940F08BE016B5A7F4FCE010196E2
:101FA0000E942808CE018B5A9F4F0E9420086BE2A6
:101FB00073E0CE018B5A9F4F0E940F08BE016B5AEF
:101FC0007F4FCE0101960E942808CE018B5A9F4F69
:101FD0000E9420086CE473E0CE018B5A9F4F0E9450
:101FE0000F08BE0163597F4FCE018B5A9F4F0E944D
:101FF000C10766E573E00E94AB07BE0163597F4FDE
:102000000E94C10768E573E00E94AB07BC01CE01E6
:1020100001960E942808CE018B5A9F4F0E942008EB
:1020200068E673E0CE018B5A9F4F0E940F08BE01F5
:102030006B5A7F4FCE0101960E942808CE018B5A21
:102040009F4F0E94200863E773E0CE018B5A9F4F99
:102050000E940F08BE016B5A7F4FCE0101960E946D
:102060002808CE018B5A9F4F0E94200860E177E23A
:1020700080E090E00E94AB0368E773E0CE018B5AEA
:102080009F4F0E940F08BE016B5A7F4FCE010196F1
:102090000E942808CE018B5A9F4F0E942008CE0133
:1020A0008F599F4F0E942008CE0189599F4F0E944F
:1020B0002008CE0183599F4F0E94200880E291E0C2
:1020C0009A838983CE0101960E94E80600E010E021
:1020D00001151105E9F30E94E5028823C9F30E9466
:1020E0000000F6CF75015701FFEFAF1ABF0AD70105
:1020F0008C91082E000C990B0E94BD10892B91F732
:10210000015011090C0D1D1DF8018081082E000CD5
:10211000990B0E94BD10892B31F00E151F0518F088
:1021200001501109F1CFA8014F5F5F4F4E195F09B0
:10213000E3965FAF4EAFE397CE14DF0420F4B70110
:10214000C6010E94E812AF96EEADFFADAF97E396E1
:102150008EAD9FADE397E80FF91F1082CCCDCE0175
:102160008B5A9F4F0E94990710CE85EA94E00E94F7
:1021700020088BEA94E00C94200891110C94C6106E
:10218000803219F089508550C8F70895992788271B
:1021900008952F923F924F925F926F927F928F920B
:1021A0009F92AF92BF92CF92DF92EF92FF920F93E6
:1021B0001F93CF93DF93CDB7DEB7CA1BDB0B0FB6F0
:1021C000F894DEBF0FBECDBF09942A8839884888AD
:1021D0005F846E847D848C849B84AA84B984C88443
:1021E000DF80EE80FD800C811B81AA81B981CE0F3A
:1021F000D11D0FB6F894DEBF0FBECDBFED0108951F
:10220000EE0FFF1F0590F491E02D09940F931F939B
:10221000CF93DF938230910510F482E090E0E0915B
:10222000B304F091B40430E020E0B0E0A0E03097D7
:1022300099F42115310509F44AC0281B390B2430C3
:102240003105D8F58A819B816115710589F1FB0102
:1022500093838283FE0111C04081518102811381E9
:1022600048175907E0F04817590799F4109761F09B
:1022700012960C93129713961C933296CF01DF910E
:10228000CF911F910F9108950093B3041093B4045C
:10229000F4CF2115310551F04217530738F0A90149
:1022A000DB019A01BD01DF01F801C1CFEF01F9CFD8
:1022B0009093B4048093B304CDCFFE01E20FF31FDB
:1022C000819391932250310939832883D7CF20916C
:1022D000B1043091B204232B41F420910E013091CE
:1022E0000F013093B2042093B10420910C0130917E
:1022F0000D012115310541F42DB73EB74091100174
:1023000050911101241B350BE091B104F091B204FE
:10231000E217F307A0F42E1B3F0B2817390778F0BC
:10232000AC014E5F5F4F2417350748F04E0F5F1F1B
:102330005093B2044093B104819391939FCFF0E006
:10234000E0E09CCFCF93DF930097E9F0FC01329758
:1023500013821282A091B304B091B404ED0130E075
:1023600020E01097A1F420813181820F931F2091EA
:10237000B1043091B2042817390709F061C0F09315
:10238000B204E093B104DF91CF910895EA01CE1732
:10239000DF07E8F54A815B819E0141155105B1F7E0
:1023A000E901FB83EA8349915991C40FD51FEC17CA
:1023B000FD0761F4808191810296840F951FE901E8
:1023C00099838883828193819B838A83F0E0E0E014
:1023D00012968D919C9113970097B9F52D913C9190
:1023E0001197CD010296820F931F2091B104309175
:1023F000B2042817390739F6309751F51092B40412
:102400001092B304B093B204A093B104BCCFD383B1
:10241000C28340815181840F951FC817D90761F489
:102420004E5F5F4F88819981480F591F51834083C8
:102430008A819B81938382832115310509F0B0CF76
:10244000F093B404E093B3049ECFFD01DC01C0CF50
:1024500013821282D7CFB0E0A0E0E1E3F2E10C9466
:10246000CB108C01009751F4CB010E9406118C0116
:10247000C801CDB7DEB7E0E10C94E710FC01E60F30
:10248000F71F9C0122503109E217F30708F49DC0A1
:10249000D901CD91DC911197C617D70798F0C530B7
:1024A000D10530F3CE0104978617970708F3C61BB2
:1024B000D70B2297C193D1936D937C93CF010E9448
:1024C000A211D6CF5B01AC1ABD0A4C018C0E9D1E29
:1024D000A091B304B091B404512C412CF12CE12C07
:1024E000109731F58091B1049091B2048815990547
:1024F00009F05CC04616570608F058C080910C01E0
:1025000090910D01009741F48DB79EB74091100155
:1025100050911101841B950BE817F90708F055C07D
:10252000F093B204E093B104F90171836083A0CF0A
:102530008D919C91119712966C90129713967C90A6
:102540001397A815B90559F56C0142E0C40ED11CCA
:10255000CA14DB0420F1AC014A195B09DA011296B6
:10256000159780F06282738251834083D9016D9305
:102570007C93E114F10471F0D7011396FC93EE9370
:10258000129776CF22968C0F9D1FF901918380833D
:10259000F301EFCFF093B404E093B30469CF48168E
:1025A000590608F42C017D01D3019ACFCB010E947A
:1025B00006117C01009749F0AE01B8010E94E812B3
:1025C000C8010E94A211870153CF10E000E050CF54
:1025D000FB01DC0102C001900D9241505040D8F740
:1025E0000895FB01DC0101900D920020E1F70895B0
:1025F00010E0C7E9D0E004C0FE010E94001121965E
:10260000C839D107C9F7F894FFCFFFFFFFFF00E1FA
:102610000000000000000000B50480005858585821
:10262000585858313030000000000A077B02270755
:1026300062049C06B906A60600C180810000000065
:102640000000001101DD0332012701780136015439
:1026500001000000001A037B02A8026603D902B73A
:1026600002CB02FE002F62696E2F617368002D633A
:10267000002F6D6E742F736461312F617264756900
:102680006E6F2F69642E747874004C696768744D9E
:1026900065006361742000686F73746E616D6520FE
:1026A00000756369207365742073797374656D2E8A
:1026B0004073797374656D5B305D2E686F73746EF3
:1026C000616D653D270075636920736574206172D3
:1026D0006475696E6F2E4061726475696E6F5B30F0
:1026E0005D2E6163636573735F706F696E745F778E
:1026F0006966695F6E616D653D270075636920736A
:10270000657420776972656C6573732E40776966AE
:10271000692D69666163655B305D2E656E637279F4
:102720007074696F6E3D276E6F6E65270075636903
:102730002073657420776972656C6573732E4077BA
:102740006966692D69666163655B305D2E6D6F64D6
:10275000653D277374612700756369207365742074
:10276000776972656C6573732E40776966692D6948
:10277000666163655B305D2E737369643D27656DCB
:1027800070747927007563692073657420776972A6
:10279000656C6573732E40776966692D6966616340
:1027A000655B305D2E6B65793D2727007563692079
:1027B00073657420776972656C6573732E726164DA
:1027C000696F302E6368616E6E656C3D276175744C
:1027D0006F27007563692073657420776972656C73
:1027E0006573732E726164696F302E636F756E74DA
:1027F00072793D27555327007563692064656C65C0
:102800007465206E6574776F726B2E6C616E2E69C5
:102810007061646472007563692064656C657465D9
:10282000206E6574776F726B2E6C616E2E6E6574A0
:102830006D61736B0075636920736574206E6574D8
:10284000776F726B2E6C616E2E70726F746F3D2796
:102850006468637027006563686F202D652022001F
:102860000A0022207C2070617373776420726F6F7E
:10287000740075636920636F6D6D697400776966B4
:102880006900776966692D72657365742D616E6480
:082890002D7265626F6F740088
:1070000055C000006EC000006CC000006AC00000E7
:1070100068C0000066C0000064C0000062C00000DC
:1070200060C000005EC00000FCC400005AC0000048
:1070300058C0000056C0000054C0000052C00000FC
:1070400050C000005DC000004CC000004AC00000FD
:1070500048C0000046C0000044C0000042C000001C
:1070600040C000003EC000003CC000003AC000002C
:1070700038C0000036C0000034C0000032C000003C
:1070800030C000002EC000002CC000002AC000004C
:1070900028C0000026C0000024C0000022C000005C
:1070A00020C000001EC000001CC0000011241FBE34
:1070B000CFEFDAE0DEBFCDBF11E0A0E0B1E0E6E463
:1070C000FFE702C005900D92A63AB107D9F711E08B
:1070D000A6EAB1E001C01D92AF3BB107E1F74FD383
:1070E00030C78ECFF89410926F001092810081E02B
:1070F00085BF15BE47985D9A289A0C9400000895A4
:107100001F920F920FB60F9211242F938F939F937C
:10711000EF93FF9310928500109284008091A60156
:107120009091A701009741F001979093A701809358
:10713000A601892B09F45D9A8091A8019091A9017B
:10714000009741F001979093A9018093A801892BA2
:1071500009F4289A8091AC019091AD010196909329
:10716000AD018093AC01E0E0F0E0859194918F5FF8
:107170009F4F49F08091AA019091AB0101969093A5
:10718000AB018093AA01FF91EF919F918F912F9175
:107190000F900FBE0F901F90189584E08093E90028
:1071A0000DC08091E8008B778093E80003C08EB318
:1071B000882351F08091E80082FFF9CF8091E800A8
:1071C00085FFEFCF8091F1000895982F83E08093A1
:1071D000E9008091E80085FD0DC08091E8008E7780
:1071E0008093E80003C08EB3882369F08091E800A3
:1071F00080FFF9CF9093F1005D9884E690E0909342
:10720000A7018093A60108954F925F926F927F929B
:107210008F929F92AF92BF92CF92DF92EF92FF92A6
:107220000F931F93CF93DF9384E08093E9008091C5
:10723000E80082FF57C2289884E690E09093A90165
:107240008093A801AADF182F853481F48CE49DE196
:107250009093AB018093AA0107B600FCFDCFF9998A
:10726000FECF81E180935700E89503C0843519F47F
:1072700094DF8DE00DC28C34E1F38035D1F3843797
:1072800021F484E4A2DF80E003C2813611F489E5B1
:10729000FFC18134B1F481DF182F7FDF90E0880FC8
:1072A000991FAA2797FDA095BA2F312F330F20E001
:1072B000442737FD4095542F822B932BA42BB52BBD
:1072C000B8C1803711F483E5E3C1833549F4C0E0E8
:1072D000D1E089917ADF21E0C730D207D1F7D9C157
:1072E000863521F481E371DF80E3D2C1833731F445
:1072F00087E86BDF85E969DF8EE1CAC18536B9F4BD
:10730000E0E0F0E093E085E090935700E89507B661
:1073100000FCFDCF80935700E89507B600FCFDCF39
:10732000E058FF4FA0E7E030FA0771F7A2CF8237AD
:1073300039F4E1E0F0E089E0809357008491A8C13E
:10734000863439F4E0E0F0E089E0809357008491DE
:107350009FC18E3439F4E3E0F0E089E08093570078
:10736000849196C1813539F4E2E0F0E089E08093C0
:10737000570084918DC1823631F489E526DF80E0A3
:1073800024DF80E885C1823419F0873609F0E5C032
:107390001092AB011092AA0100DF082FFEDEF82E3A
:1073A000FCDE682E8554823008F071C1902F80E099
:1073B000CF2DD0E0C82BD92B10926F00173609F0D3
:1073C0004BC081E180935700E895DD24CC24C39421
:1073D0003FC0E090AF01F090B0010091B101109179
:1073E000B201B6E46B16D9F4ED2DF0E0EE29FF29D9
:1073F000E4918E2FEADEDD2081F082E090E0A0E0D3
:10740000B0E0E80EF91E0A1F1B1FE092AF01F092D8
:10741000B0010093B1011093B201DC2418C0D8016F
:10742000C701B695A7959795879575D5CEDE82E06D
:1074300090E0A0E0B0E0E80EF91E0A1F1B1FE092EA
:10744000AF01F092B0010093B1011093B201219706
:10745000209709F0BECF7DC08090AF019090B00121
:10746000A090B101B090B20196E4691609F05DC038
:1074700083E0F40180935700E89507B600FCFDCF48
:1074800054C0F6E46F1661F5772031F1E090AF015A
:10749000F090B0010091B1011091B2017EDED82EC2
:1074A000CC24852D90E08C299D29F7010C01409278
:1074B0005700E895112482E090E0A0E0B0E0E80EEB
:1074C000F91E0A1F1B1FE092AF01F092B00100935A
:1074D000B1011093B20102C060DE582E742423C0A3
:1074E000E090AF01F090B0010091B1011091B201B4
:1074F00016950795F794E79450DE682FC70113D5CA
:107500008091AF019091B001A091B101B091B20111
:107510000296A11DB11D8093AF019093B001A0937D
:10752000B101B093B201219704C0552477244424BB
:107530004394209709F0A5CF96E4691641F485E0BD
:10754000F40180935700E89507B600FCFDCF8DE06D
:107550003CDE82E080936F009CC0833471F4009124
:10756000AF011091B00119DE90E021E0F8010C01AB
:1075700020935700E89511247CCE833619F5E090CE
:10758000AF01F090B0010091B1011091B20105DEA0
:10759000F701E16090E021E00C0120935700E895AD
:1075A000112482E090E0A0E0B0E0E80EF91E0A1F8E
:1075B0001B1FE092AF01F092B0010093B101109354
:1075C000B20157CE8D3661F4E091AF01F091B00178
:1075D00085E080935700E89507B600FCFDCF49CEC3
:1075E000823551F4E091AF01F091B0010591149111
:1075F000812FEBDD802F4CC0843421F5E090AF016A
:10760000F090B0010091B1011091B201169507956B
:10761000F794E794C2DD682FC70185D48091AF014C
:107620009091B001A091B101B091B2010296A11D5B
:10763000B11D8093AF019093B001A093B101B093BD
:10764000B20117CE843609F5E090AF01F090B00199
:107650000091B1011091B201D801C701B695A7956B
:107660009795879558D4B1DD82E090E0A0E0B0E036
:10767000E80EF91E0A1F1B1FE092AF01F092B00145
:107680000093B1011093B20104C08B3111F08FE36C
:107690009CDD83E08093E9009091E8008091E80010
:1076A0008E778093E80095FF04C010C08EB38823C6
:1076B000C9F08091E80080FFF9CF8091E8008E77D3
:1076C0008093E80003C08EB3882361F08091E800C6
:1076D00080FFF9CF84E08093E9008091E8008B7708
:1076E0008093E800DF91CF911F910F91FF90EF9071
:1076F000DF90CF90BF90AF909F908F907F906F90D2
:107700005F904F9008959091B701892F8F778132C4
:1077100049F58091B8018032A1F0813219F5913A92
:1077200009F58091E800877F8093E8008CE091E084
:1077300067E070E027D28091E8008B778093E800C3
:107740000895913279F48091E800877F8093E80072
:107750008CE091E067E070E079D28091E8008E776C
:107760008093E800089582E061EC42E0D1D083E0AC
:1077700061E842E1CDD084E060E842E1C9C01F93F6
:10778000209100081092000844B714BE88E10FB69B
:10779000F89480936000109260000FBE80E8E0E0F3
:1077A000F0E00FB6F89480936100E09361000FBEA3
:1077B00031E035BF92E095BF3F9A209A559A809369
:1077C00061001092610047985D9A289A1092890092
:1077D0008AEF8093880090936F0083E0809381000C
:1077E000859194918F5F9F4F11F03093AE01942F4C
:1077F00041FF19C0809109012817A9F08093000862
:10780000789480911301882339F08091AC01909194
:10781000AD018F5E9240C8F310920008F89481E0A9
:10782000809313010CC090FF04C08091AE018823A7
:1078300051F493FF09C080910901281729F0809124
:10784000AE01882309F04EDCD4D078941092AB01BD
:107850001092AA011EEF20C0D7DC4BD38091AA0161
:107860009091AB0181549F4110F0109213018091CF
:10787000B3019091B40101969093B4018093B30148
:10788000292F97FF03C0512F591B252F220F28178F
:1078900010F4479801C0479A809113018823E1F6BC
:1078A0008091E00081608093E0001CDC80E090E04B
:1078B0001F910895FA01923049F0933061F09130B0
:1078C000F9F484E191E022E130E01EC086E291E02B
:1078D0002EE330E019C0882329F484E691E024E007
:1078E00030E012C0813029F488E691E022E230E0F5
:1078F0000BC0823029F48CE891E028E130E004C02C
:1079000080E090E020E030E091838083C901089519
:107910008093E9008091EB0081608093EB001092EE
:10792000ED006093EC004093ED008091EE00881F25
:107930008827881F08958091B70188238CF403C09D
:107940008EB38823B1F08091E80082FFF9CF809157
:10795000E8008B778093E80008958EB3882349F080
:107960008091E80080FFF9CF8091E8008E778093C6
:10797000E8000895EF92FF920F931F9345D04CD0EB
:1079800008ED10E0F80180818F7780838081806826
:10799000808380818F7D808319BC1EBA1092B501CF
:1079A00080EEE82EF12CF70180818B7F8083F80137
:1079B00080818160808380E060E042E0A9DFE1EEC9
:1079C000F0E080818E7F8083E2EEF0E08081816054
:1079D0008083808188608083F70180818E7F8083AF
:1079E000F8018081806180831F910F91FF90EF905B
:1079F0000895E7EDF0E08081816080838AE482BFB2
:107A000081E08093B601B6CFE8EDF0E080818E7F13
:107A100080831092E20008951092DA001092E10043
:107A200008951F920F920FB60F9211242F933F9338
:107A30004F935F936F937F938F939F93AF93BF9376
:107A4000EF93FF938091DA0080FF1BC08091D800F4
:107A500080FF17C08091DA008E7F8093DA008091DA
:107A6000D90080FF0BC080E189BD82E189BD09B4E6
:107A700000FEFDCF81E08EBB3BD203C019BC1EBA15
:107A800037D28091E10080FF17C08091E20080FF33
:107A900013C08091E2008E7F8093E2008091E2002B
:107AA00080618093E2008091D80080628093D8004A
:107AB00019BC85E08EBB1CD28091E10084FF2CC0F4
:107AC0008091E20084FF28C080E189BD82E189BD08
:107AD00009B400FEFDCF8091D8008F7D8093D8003F
:107AE0008091E1008F7E8093E1008091E2008F7EA3
:107AF0008093E2008091E20081608093E2008091B7
:107B0000B501882331F48091E30087FD02C081E054
:107B100001C084E08EBBECD18091E10083FF21C0E5
:107B20008091E20083FF1DC08091E100877F8093F8
:107B3000E10082E08EBB1092B5018091E1008E7F62
:107B40008093E1008091E2008E7F8093E20080913B
:107B5000E20080618093E20080E060E042E0D8DEF5
:107B6000C7D1FF91EF91BF91AF919F918F917F917D
:107B70006F915F914F913F912F910F900FBE0F909A
:107B80001F9018959C014091BD015091BE01461770
:107B9000570718F4F90190E044C06115710511F020
:107BA000AB01F8CF8091E8008E778093E80040E049
:107BB00050E0F0CF8EB3882309F444C0853009F437
:107BC00043C08091E80083FF02C081E00895809166
:107BD000E80082FD31C08091E80080FF22C08091E2
:107BE000F3009091F200782F60E0292F30E0262BEF
:107BF000372B07C081918093F100415050402F5F97
:107C00003F4F4115510519F02830310598F390E0A8
:107C10002830310509F491E08091E8008E77809357
:107C2000E8004115510531F6992321F605C08EB3C0
:107C3000882341F0853041F08091E80082FFF7CF42
:107C400080E0089582E0089583E008959C01611525
:107C5000710529F48091E8008B778093E800F901A1
:107C600026C08EB3882391F1853091F18091E80090
:107C700083FF02C081E008958091E80082FFF1CF88
:107C800006C08091F10081936150704059F02091BD
:107C9000F3008091F200322F20E090E0822B932BB2
:107CA000892B79F78091E8008B778093E800611544
:107CB0007105B9F605C08EB3882341F0853041F0D7
:107CC0008091E80080FFF7CF80E0089582E008957A
:107CD00083E008950F931F93DF93CF9300D0CDB728
:107CE000DEB7E7EBF1E08091F100819381E0EF3BBB
:107CF000F807C9F708DD8091E80083FFE4C08091B0
:107D0000B7019091B801953009F46DC0963040F4F8
:107D1000913081F1913070F0933009F0D4C02AC0D5
:107D2000983009F4A3C0993009F4B2C0963009F034
:107D3000CAC07CC0803809F4C6C0823809F0C3C00C
:107D40008091BB0187708093E9008091EB001092D5
:107D5000E9002091E800277F2093E80090E025E0EB
:107D6000969587952A95E1F781708093F10010929E
:107D7000F10087C0882319F0823009F0A4C08F7108
:107D8000823009F0A0C08091B901882331F520919B
:107D9000BB01277009F497C02093E9008091EB00A4
:107DA00080FF1BC0933021F48091EB00806213C0F0
:107DB0008091EB0080618093EB0081E090E002C055
:107DC000880F991F2A95E2F78093EA001092EA0043
:107DD0008091EB0088608093EB001092E900809125
:107DE000E800877F51C0882309F06DC01091B90168
:107DF0001F770FB7F8948091E800877F8093E800A1
:107E00009ADD8091E80080FFFCCF8091E3008078CC
:107E1000812B8093E30080688093E300112311F4A9
:107E200082E001C083E08EBB0FBF4DC0805882301E
:107E300008F049C08091B9019091BA016091BB01ED
:107E4000AE014F5F5F4F36DDBC01009709F43BC0C8
:107E50008091E800877F8093E80089819A8192DE93
:107E60008091E8008B778093E8002DC0803859F529
:107E70008091E800877F8093E8008091B50180932E
:107E8000F1008091E8008E778093E80054DD1BC0FC
:107E90008823C9F49091B9019230A8F48091E80048
:107EA000877F8093E8009093B50145DD8091B5010F
:107EB000882331F48091E30087FD02C081E001C096
:107EC00084E08EBB50DC8091E80083FF0AC0809183
:107ED000EB0080628093EB008091E800877F8093C5
:107EE000E8000F900F90CF91DF911F910F910895AF
:107EF00008951F938EB3882361F01091E9001092CA
:107F0000E9008091E80083FF01C0E4DE1770109360
:107F1000E9001F910895F999FECF92BD81BDF89AAD
:107F2000992780B50895262FF999FECF1FBA92BDE3
:107F300081BD20BD0FB6F894FA9AF99A0FBE01964A
:107F40000895F894FFCF4341544552494E4100777C
:107F500000080000000000000801120110010200EA
:107F600000084123410001000201000109023E0016
:107F70000201008032090400000102020100052410
:107F800000100104240204052406000107058203F1
:107F90000800FF09040100020A00000007050402AE
:107FA00010000107058302100001040309042203E5
:107FB000410072006400750069006E006F002000CF
:107FC000590075006E0020002000200020002000D5
:107FD00000001803410072006400750069006E0023
:0C7FE0006F0020004C004C00430000002B
:00000001FF
