:100000000C9459020C9481020C9481020C9481028C
:100010000C9481020C9481020C9481020C94810254
:100020000C9481020C9481020C94F81C0C94671DB2
:100030000C9481020C9481020C9481020C94810234
:100040000C9481020C9481020C9481020C94810224
:100050000C9481020C9481020C9481020C94F11F87
:100060000C9481020C94BF1F0C94991F0C94810274
:100070000C9481020C9481020C9481020C948102F4
:100080000C9481020C9481020C9481020C948102E4
:100090000C9481020C9481020C9481020C948102D4
:1000A0000C9481020C9481020C948102616D697838
:1000B000657220737365742050434D2031303025B4
:1000C000202626206D6164706C6179202F6D6E741E
:1000D0002F736461312F61726475696E6F2F617562
:1000E00064696F2F776E5F6F6E2E6D7033202D7287
:1000F0000026006E6574776F726B726573657400AD
:100100007761726E696E6700736C65657000776108
:100110006B65006E6574776F726B696E666F002039
:1001200000766F6C756D650073746F7000200070E1
:100130006C617900617564696F00200062726967A3
:1001400068746E65737300200020002000626C6983
:100150006E6B0066616465006F6E002000200070A9
:10016000616C65747465006F6666006C69676874BD
:100170000000000000240027002A002D003000723B
:10018000756E2D6272696467650A000A000A006371
:100190006174202F6D6E742F736461312F617264EE
:1001A00075696E6F2F69642E74787400616D69785B
:1001B000657220737365742050434D2031303025B3
:1001C000006D6164706C6179202F6D6E742F7364A3
:1001D00061312F61726475696E6F2F617564696F2B
:1001E0002F636C61702E6D703300616D697865727C
:1001F00020737365742050434D20302500495020F2
:10020000616464726573733A20004D6F64653A20CF
:10021000436C69656E74004D6F64653A204D61737F
:10022000746572002F7573722F62696E2F7072651C
:100230007474792D776966692D696E666F2E6C7599
:1002400061207C20677265702022535349445C7C96
:100250004D6F64655C7C49505C7C4D41432200617C
:100260006D6978657220737365742050434D203139
:10027000303025202626206D6164706C6179202F36
:100280006D6E742F736461312F61726475696E6F66
:100290002F617564696F2F63616E5F6F6E2E6D7075
:1002A0003300616D69786572207373657420504303
:1002B0004D20363025202626206D6164706C6179D2
:1002C000202F6D6E742F736461312F6172647569B4
:1002D0006E6F2F617564696F2F776E5F6F66662E24
:1002E0006D703300616D6978657220737365742079
:1002F00050434D2032352500616D69786572207359
:100300007365742050434D2035302500616D697848
:10031000657220737365742050434D203735250076
:10032000616D6978657220737365742050434D2048
:1003300031303025202626206D6164706C61792073
:100340002F6D6E742F736461312F61726475696EE5
:100350006F2F617564696F2F68622E6D7033202D69
:100360007200616D69786572207373657420504303
:100370004D20313030250072657365742D6D6375C5
:1003800020262620776966692D72657365742D6154
:100390006E642D7265626F6F74006D6164706C6164
:1003A00079202F6D6E742F736461312F61726475C3
:1003B000696E6F2F617564696F2F6F6E6C696E6502
:1003C0002E6D703300080B000202020000090400C9
:1003D00000010202000005240010010524010101B2
:1003E00004240206052406000107058103100040CD
:1003F00009040100020A0000000705020240000093
:10040000070583024000000403090412010002EF03
:100410000201404123418000010102030141726455
:1004200075696E6F204C4C430041726475696E6F44
:100430002059756E000000000200090F000003043F
:1004400001000C000000000000000000000000009F
:100450000000000000000000250028002B002E00F6
:100460003100000000002300260029002C002F008E
:100470000404040404030405020202020403020249
:10048000020206060606060604040202020404042A
:100490000802011040804010204080408008020483
:1004A00001804020100201108010204040206E206A
:1004B0006D2E11241FBECFEFDAE0DEBFCDBF25E0E9
:1004C000A6E3B2E001C01D92AE3BB207E1F712E035
:1004D000A0E0B1E0E8EDF6E602C005900D92A6338B
:1004E000B107D9F712E0C8E5D2E004C02197FE01B8
:1004F0000E942B31C735D107C9F70E94B4220C9452
:100500005F330C9400001F93CF93DF9311E0180F1B
:10051000209175041217A1F1C0917604D09177044F
:10052000215070E060E061F08F3FF1F430E050E086
:1005300040E06FEF7FEF80E090E00E940C31B90166
:10054000FE014091710450917204CF018C1B9D0BF0
:100550008417950798F44081469FC001479F900DEE
:10056000112490833196EDCF812F90E0982F88272A
:100570000197622F70E00E94D630E2CF109375048D
:10058000DF91CF911F9108958F929F92AF92BF926A
:10059000CF92DF92EF92FF92CF9320916F04309130
:1005A000700482179307E8F54B01AA24BB24C82DD9
:1005B000C52ED62EE72EFF24BC2DA42F2091750426
:1005C000222361F0829E40011124C92D2C9D6001DF
:1005D0001124BD2D249FF0011124AF2FE0917B0445
:1005E000E0907604F090770430917804E31323C010
:1005F0009C01220F331F820F931F8E0D9F1DE091D0
:100600007804E80FF92FF11DC083E0917904E80F19
:10061000F92FF11DB08320917A04820F911DFC0106
:10062000A083CF91FF90EF90DF90CF90BF90AF90DD
:100630009F908F900895880F991F880F991F8E0D96
:100640009F1D472F552766277727222349F030E043
:10065000249F7001259FF00C349FF00C11244F2D26
:10066000E80FF92FF11D4083CACFCF93DF93EC0140
:10067000FA013296E60FF71FDC019D012C1B3D0BA2
:10068000CF01861B970B4D91442311F04193F5CF79
:10069000AC01421B530B640F751FFB013297308373
:1006A00061507109FB012083DF91CF910895809102
:1006B000F0039091F103009711F480E02FC0DC016A
:1006C000ED91FC910688F789E02D0995209113049E
:1006D0003091140481111FC0232B79F78DEF9FEF08
:1006E00090931404809313048091F0039091F1038C
:1006F000DC01ED91FC910680F781E02D0995809158
:10070000F0039091F103DC01ED91FC910488F589EF
:10071000E02D0995D2CF81E0232B79F60895FC01D5
:100720008091DA02882311F13FB7F89482E0809338
:10073000E9002091F200822F90E01816190614F4B7
:1007400081E090E0882339F0289844E64093D9026C
:100750004091F1004083222339F02091F2002111D1
:1007600003C02BE62093E8003FBF08958FEF9FEF73
:1007700008952FB7F89483E08093E9009091E80002
:10078000892F807295FF04C09091F20080E4891B4C
:100790002FBF08958091D10281110DC082E0809316
:1007A000CD0284E08093CE021092D0021092CF024C
:1007B00081E08093D1028DEC92E00895CF93DF9396
:1007C0001F92CDB7DEB76983DC01ED91FC91028009
:1007D000F381E02D41E050E0BE016F5F7F4F09954E
:1007E0000F90DF91CF91089583E08093E90080918D
:1007F000F200882319F08AE38093E80008950E94AC
:10080000B90390E00895CF93DF931F92CDB7DEB781
:10081000FC018485958597FD08C02FEF3FEF358754
:1008200024870F90DF91CF910895CE0101960E9409
:100830008F03019719F4898190E0F3CF8FEF9FEF39
:10084000F0CF0F931F93CF93DF931F92CDB7DEB7F7
:100850008C01FC018485958597FF0BC0CE01019624
:100860000E948F03019771F4898190E0F8019587C8
:100870008487F801848595850F90DF91CF911F9132
:100880000F9108958FEF9FEFF1CFFC01848595853F
:1008900097FD0BC09FB7F89482E08093E9008091A8
:1008A000F2009FBF90E0019608959FB7F89482E010
:1008B0008093E9008091F2009FBF90E008954091FD
:1008C000C7025091C8022091C5023091C60242175A
:1008D0005307B4F49091E8009570E1F39091E8002B
:1008E00092FD19C08093F1008091C7029091C802D7
:1008F00001968F739927892B19F48EEF8093E80066
:100900008091C7029091C80201969093C80280938B
:10091000C70281E0089580E00895DF92EF92FF9290
:100920000F931F93CF93DF93D82E8A01EB017B01A6
:10093000E40EF51ECE15DF0559F0D7FE12C0FE01FC
:1009400084910E945F0421968111F4CF0FEF1FEF75
:10095000C801DF91CF911F910F91FF90EF90DF9031
:1009600008958881EECF0F931F93CF93DF931F924B
:10097000CDB7DEB782E0898342E450E065EC73E0F6
:1009800080E80E948D040E94CA03DC0112960D913A
:100990001C910115110589F0D801ED91FC9102809F
:1009A000F381E02DBE016F5F7F4FC801099597FD70
:1009B00004C0F80100851185ECCF89810F90DF918B
:1009C000CF911F910F910895615030F02091F10067
:1009D000FC0120830196F8CF289884E68093D90201
:1009E00008950895EF92FF920F931F93CF93DF9393
:1009F0008C017B01D0E0C0E0F701EC0FFD1F64919A
:100A0000662361F0D801ED91FC910190F081E02D19
:100A1000C8010995892B11F02196EECFCE01DF9107
:100A2000CF911F910F91FF90EF900895AF92BF92D9
:100A3000CF92DF92EF92FF920F931F93CF93DF93AA
:100A40006C017B018B01040F151FEB015E01AE18D9
:100A5000BF08C017D10759F06991D601ED91FC91FB
:100A60000190F081E02DC6010995892B79F7C50128
:100A7000DF91CF911F910F91FF90EF90DF90CF907A
:100A8000BF90AF900895FC01538D448D252F30E029
:100A9000842F90E0821B930B541710F0CF9608958B
:100AA00001970895FC01918D828D981761F0A28DB8
:100AB000AE0FBF2FB11D5D968C91928D9F5F9F737E
:100AC000928F90E008958FEF9FEF0895FC01918D34
:100AD000828D981731F0828DE80FF11D858D90E0A1
:100AE00008958FEF9FEF0895FC01918D228D892F3E
:100AF00090E0805C9F4F821B91098F739927089526
:100B000087E393E00E94740521E0892B09F420E03B
:100B1000822F089580E090E0892B29F00E948005C3
:100B200081110C9400000895FC01A48DA80FB92F29
:100B3000B11DA35ABF4F2C91848D90E001968F7305
:100B40009927848FA689B7892C93A089B1898C9124
:100B500082748C93938D848D981306C00288F389D8
:100B6000E02D80818F7D80830895EF92FF920F9317
:100B70001F93CF93DF93EC0181E0888F9B8D8C8D49
:100B8000981319C0E889F989808185FF14C09FB73F
:100B9000F894EE89FF896083E889F98980818274FD
:100BA00080839FBF81E090E0DF91CF911F910F91F3
:100BB000FF90EF900895F62E0B8D10E00F5F1F4F02
:100BC0000F731127E02E8C8D8E110CC00FB607FC11
:100BD000FACFE889F989808185FFF5CFCE010E949F
:100BE0009405F1CFEB8DEC0FFD2FF11DE35AFF4F74
:100BF000F0829FB7F8940B8FEA89FB89808180622D
:100C0000CFCFCF93DF93EC01888D8823B9F0AA89E9
:100C1000BB89E889F9898C9185FD03C0808186FDB7
:100C20000DC00FB607FCF7CF8C9185FFF2CF808106
:100C300085FFEDCFCE010E949405E9CFDF91CF91E2
:100C4000089581508F3008F047C0E82FF0E0E55D4F
:100C5000F94F0C942B3148064C063A0640064406E0
:100C60006C066C066C064F06550659065D06630653
:100C70006C066706809180008F77809380000895CE
:100C8000809180008F7DF9CF80918000877FF5CFA4
:100C900084B58F7784BD089584B58F7DFBCF809117
:100CA00090008F77809390000895809190008F7DC1
:100CB000F9CF80919000877FF5CF8091C0008F772A
:100CC0008093C00008958091C0008F7DF9CF8091FE
:100CD000C200877F8093C2000895CF93DF93282FAF
:100CE00030E0F901EB5CFB4F8491F901E157FB4FD8
:100CF000D491F901E059FB4FC491CC2391F08111BB
:100D00000E942106EC2FF0E0EE0FFF1FEC5AFB4F84
:100D1000A591B4918FB7F894EC91D095DE23DC9334
:100D20008FBFDF91CF910895CF93DF93282F30E0CD
:100D3000F901EB5CFB4F8491F901E157FB4FD49132
:100D4000F901E059FB4FC491CC23A1F081110E941D
:100D50002106EC2FF0E0EE0FFF1FEE59FB4FA5919F
:100D6000B491EC91ED2381E090E009F480E0DF9113
:100D7000CF91089580E090E0FACFCF93DF9390E099
:100D8000FC01E157FB4F249180599B4FFC0184915A
:100D90008823D1F090E0880F991FFC01EF58FE4F97
:100DA000A591B491FC01EC5AFB4FC591D49161110E
:100DB0000EC09FB7F8948C91E22FE0958E238C9310
:100DC0002881E223E8839FBFDF91CF9108958FB7F9
:100DD000F894EC91E22BEC938FBFF6CF3FB7F894E9
:100DE00080913B0290913C02A0913D02B0913E0265
:100DF00026B5A89B05C02F3F19F00196A11DB11D76
:100E00003FBFBA2FA92F982F8827BC01CD01620FB1
:100E1000711D811D911D42E0660F771F881F991F6C
:100E20004A95D1F70895CF92DF92EF92FF920F93F8
:100E30001F93CF93DF93CDB7DEB729970FB6F89402
:100E4000DEBF0FBECDBF8091760490917704892BD1
:100E500009F480C0C0907C04D0907D04E0907E04B2
:100E6000F0907F040E94EE066C157D058E059F05AF
:100E700050F40E94EE0660937C0470937D0480938E
:100E80007E0490937F040E94EE0600917C041091F2
:100E90007D0420917E0430917F04601B710B820BD6
:100EA000930B6C32714081059105A0F2F89480910A
:100EB0007104909172049A838983E0917604F09191
:100EC0007704DF0111968081898790916D04E0910C
:100ED0008004F091810480918204992309F449C02F
:100EE0009081982B98879081809589238F838F811B
:100EF0008C8388E08B8358856F8149853B812C8169
:100F000089819A81508347FD252F3A952083262F8A
:100F100039F0441F00C000006083000000C0F2CF21
:100F200038E04D9160830000019761F7F0938104F0
:100F3000E093800449873B832C839A838983789448
:100F40000E94EE0660937C0470937D0480937E047F
:100F500090937F0429960FB6F894DEBF0FBECDBFE5
:100F6000DF91CF911F910F91FF90EF90DF90CF9085
:100F700008959081982B98879081809589238F83FD
:100F80008F818E8388E08D8358856F8149853D816F
:100F90002E8189819A81508347FD252F00C000C092
:100FA000208300C000C000C000C000C060830000FB
:100FB000262F3A9541F0441F000000C000C000C039
:100FC00000C000C0E8CF38E04D9100C0608300C091
:100FD000019709F7F0938104E093800449873D83EA
:100FE0002E83ABCF8F929F92AF92BF92CF92DF9220
:100FF000EF92FF924B015C010E94EE066B017C01B7
:101000000E94EE066C197D098E099F09683E7340A7
:1010100081059105A8F321E0821A9108A108B10881
:1010200088EEC80E83E0D81EE11CF11C81149104E7
:10103000A104B10429F7FF90EF90DF90CF90BF900B
:10104000AF909F908F9008958F929F92AF92BF9292
:10105000CF92DF92EF92FF920F931F93CF93DF9384
:101060006C017B018A0180911D01882309F45CC019
:101070008091DA02882309F457C08091CC0280FF66
:1010800005C08091E00082608093E000E801B12C0F
:101090008AEFA82E93E0892E2AE3922E209711F44E
:1010A000BB20D9F10E94B90381110AC0AA94AA20D9
:1010B000D9F161E070E080E090E00E94F207EECFAD
:1010C0008C171D0611F00CF08C2F9FB7F8948092AE
:1010D000E9002091E80025FD02C09FBFDFCF282F47
:1010E00030E0C21BD30BF701815020F041914093B7
:1010F000F100FACFE20EF31EBB2021F09092E8003F
:10110000B12CEBCF8091E80085FDE7CF9092E8000D
:10111000BB24B394209709F3F3CF5D9884E68093C2
:10112000CB02101611063CF081E090E0F6019383AB
:10113000828310E000E0C801DF91CF911F910F91F1
:10114000FF90EF90DF90CF90BF90AF909F908F90E7
:1011500008952FB7F894609137027091380280910A
:10116000390290913A022FBF0895EF92FF920F93A8
:101170001F93CF93DF9300D000D0CDB7DEB7FA0135
:1011800020E08E010F5F1F4F9E2F9F77EE0FEF2FF6
:10119000EE1FFF0BF195309709F09068D801A20F70
:1011A000B11D9C932F5F309779F730E0FB01E21B74
:1011B000F30B8483FB01E21BF30B3596D801CD01C1
:1011C000801B910B821793071CF48D918193F7CFAD
:1011D0002F5F3F4F8091F0039091F1038901040F3D
:1011E000151F621B730B6B5F7F4FDC01ED91FC9150
:1011F0000280F381E02DA80109957C010E94A908D5
:101200006093FC037093FD038093FE039093FF03B0
:1012100081E00E151F0509F080E00F900F900F90F0
:101220000F90DF91CF911F910F91FF90EF90089554
:101230008F929F92AF92BF92CF92DF92EF92FF92E6
:10124000CF93DF93EC010E94A9084B015C018091D0
:10125000F0039091F103DC01ED91FC910084F185A4
:10126000E02D0995892BB9F40E94A9086B017C0136
:10127000C818D908EA08FB082091F8033091F9034F
:10128000A8EEB3E00E949130C616D706E806F9062C
:10129000F0F280E00DC08091F0039091F103DC0149
:1012A000ED91FC910284F385E02D0995888381E01E
:1012B000DF91CF91FF90EF90DF90CF90BF90AF90F4
:1012C0009F908F9008952F923F924F925F926F92CE
:1012D0007F928F929F92AF92BF92CF92DF92EF92C6
:1012E000FF920F931F93CF93DF93CDB7DEB72A976B
:1012F0000FB6F894DEBF0FBECDBF1C018091F20384
:101300009091F3030E94180981111CC060E070E005
:10131000CB012A960FB6F894DEBF0FBECDBFDF918A
:10132000CF911F910F91FF90EF90DF90CF90BF90E2
:10133000AF909F908F907F906F905F904F903F9075
:101340002F900895E091F203F091F303D080198279
:10135000EE24E394F12C812C912C5401412C512C3E
:1013600032014394CE0101960E941809882371F23C
:1013700087010F5F1F4F8981E091F203F091F30322
:10138000EE0DFF1D8083E981AE2FAF77B0E0A301A2
:1013900092010E944F30860E971EA81EB91E37E09C
:1013A000440C551C661C771C3A95D1F7E7FD3FC0ED
:1013B000BD2DB07FBE838FEF800FF1018083B033EE
:1013C00009F04CC08091F2039091F303800F911FBC
:1013D0000E941809882309F499CF2091F2033091D3
:1013E000F303C7010296820F931F0E9418098823F6
:1013F00009F48CCF0E5F1F4FE091F203F091F303DD
:10140000D1018C91DF01A80FB11D11968C9111971C
:1014100090E0982F882712962C91820F911D2081A1
:1014200021FD0296F2E0E0E030E020E01DC078010E
:101430000530110509F096CF8FEF9FEF90931404BC
:10144000809313048091F0039091F103DC01ED91FE
:10145000FC910488F589E02D099558CFF0E0E0E093
:1014600030E020E090E080E070E060E0CF2EDE2E03
:10147000E32EF22E28013B014C185D086E087F0810
:101480004A825B826C827D822C01712C612C4F829E
:10149000588669867A864A805B806C807D804C0C99
:1014A0005D1C6E1C7F1CC814D904EA04FB0408F000
:1014B00046C0CE0101960E941809882309F426CF60
:1014C0008091110490911204009711F12E81203324
:1014D000F9F4D1012C914EEF5FEF6FEF7FEF421BDC
:1014E000510961097109440E551E661E771E2F8130
:1014F000388549855A85241535054605570540F434
:10150000DC01ED91FC910190F081E02D698109955C
:101510008091F4039091F5030817190750F489811D
:10152000E091F203F091F303E00FF11F80830F5F6E
:101530001F4FBFEFCB1ADB0AEB0AFB0AACCF80913F
:10154000110490911204892B69F48091F403909115
:10155000F503B0E0A0E084159505A605B70510F4E5
:1015600010E000E0B80190E080E0D3CEEF92FF926F
:101570000F931F93CF93DF93EC018B017A010E94AD
:10158000A908688B798B8A8B9B8B8C819D81DC0170
:10159000ED91FC910280F381E02DA701B801DF916C
:1015A000CF911F910F91FF90EF9009941F93CF93CC
:1015B000DF93EC01162F0E94A908688B798B8A8B28
:1015C0009B8B8C819D81DC01ED91FC910190F081E0
:1015D000E02D612FDF91CF911F9109940895FB01B8
:1015E0002785FC012787FB012685FC0126870895B6
:1015F000FC0187850895CF93DF93EC018D819E8157
:10160000DC01ED91FC910084F185E02D099518161F
:10161000190654F48D819E81DC01ED91FC910284C8
:10162000F385E02D0995EACFDF91CF9108958F9250
:101630009F92AF92BF92CF92DF92EF92FF92CF93A1
:10164000DF93EC016B010E94A9084B015C01F12CB6
:10165000E12C8D819E81DC01ED91FC910284F3856A
:10166000E02D099597FF0DC00E94A9086819790916
:101670008A099B096C157D058E059F0550F38FEF38
:101680009FEFDF91CF91FF90EF90DF90CF90BF90D1
:10169000AF909F908F900895FC012381348126277D
:1016A000022E2295207F2025032E322F22952F7087
:1016B0000226269532272327220F220F220F2025CC
:1016C0003483238308952F923F924F925F926F92BB
:1016D0007F928F929F92AF92BF92CF92DF92EF92C2
:1016E000FF920F931F93CF93DF93CDB7DEB72A9767
:1016F0000FB6F894DEBF0FBECDBF9A8789875B0116
:10170000290137011A01200E311E3A8219828824DC
:101710008A94982C9A01260F371F3E832D83C80187
:10172000840D951D98878F83A985BA8518968C910D
:10173000B981B81708F040C1E985FA85948283829F
:1017400085819681DC01ED91FC910190F081E02D85
:101750006FEF09956FEF89859A850E944C0BE9859B
:10176000FA8585819681DC01ED91FC910190F081F3
:10177000E02DA985BA856C910995E985FA85608186
:10178000CF010E944C0BA985BA8515968D919C912D
:10179000DC01ED91FC910190F081E02D6A810995C9
:1017A0006A8189859A850E944C0BE985FA85858135
:1017B0009681DC01ED91FC910190F081E02D622D8C
:1017C0000995622D89859A850E944C0B8501E985D2
:1017D000FA8585819681D8016D918D01DC01ED91AD
:1017E000FC910190F081E02D0995F801319760811D
:1017F00089859A850E944C0BED81FE810E171F078B
:1018000031F78201A985BA8515968D919C91DC01ED
:10181000ED91FC910190F081E02D2F81388520170A
:10182000310761F0D8016D918D010995F80131976B
:10183000608189859A850E944C0BE4CFA985BA8581
:1018400014966C910995E985FA8585819681DC016C
:10185000ED91FC910190F081E02DA985BA85139658
:101860006C91099568EC70E089859A850E94170B48
:101870008F3F910509F092C0E985FA8594828382B1
:101880006FEFCF010E944C0B65E070E089859A856F
:101890000E94170BA985BA856C916817190609F083
:1018A0007DC0CD010E944C0B6AE070E089859A856D
:1018B0000E94170B7C0197FD71C0682F89859A855E
:1018C0000E944C0B6AE070E089859A850E94170B94
:1018D0008C0197FD63C0682F89859A850E944C0B07
:1018E000EC821B82EB81FC810E0F1F1FF12CE12C7F
:1018F00065E070E089859A850E151F05A1F0EC144E
:10190000FD0489F00E94170B97FD09C0F301EE0D4D
:10191000FF1D8083682F89859A850E944C0BFFEFFD
:10192000EF1AFF0AE5CF0E94170B7C0197FD36C026
:1019300065E070E089859A850E94170B97FD2EC09F
:10194000FE2CEE248E0D9F1DA985BA8513962D9130
:101950003C9114978217930709F58C918F5F8C93B4
:10196000C801C016D10608F4C6012A960FB6F8942D
:10197000DEBF0FBECDBFDF91CF911F910F91FF90C2
:10198000EF90DF90CF90BF90AF909F908F907F901F
:101990006F905F904F903F902F900895B981BF5FF7
:1019A000B98364E670E080E090E00E94F2078985E8
:1019B0009A850E94FB0AB8CE8FEF9FEFD6CFAF92E9
:1019C000BF92CF92DF92EF92FF920F931F93CF932C
:1019D000DF9300D0CDB7DEB7FC019B015A018785AC
:1019E000882301F18CE6898386858A83D12CC12CDA
:1019F000F12CE12C8A0142E050E0BE016F5F7F4F85
:101A0000848595850E94630BC5010F900F90DF912F
:101A1000CF911F910F91FF90EF90DF90CF90BF90EB
:101A2000AF900895B12CA12CEFCFCF92DF92EF921F
:101A3000FF920F931F936801790110E000E030E0FE
:101A400020E00E94630B1F910F91FF90EF90DF90B9
:101A5000CF900895EF92FF920F931F93CF93DF9350
:101A600000D01F92CDB7DEB7FC012289211118C02A
:101A70007C01138A8FE4898380E48B8386858A8343
:101A80009F012C5E3F4F00E410E043E050E0BE01B8
:101A90006F5F7F4F848595850E94150DF701828BBE
:101AA0000F900F900F90DF91CF911F910F91FF90AA
:101AB000EF900895CF93DF93EC010E942A0D8A895D
:101AC00090E0DF91CF910895CF93DF93EC010E94D6
:101AD0002A0D8A89882341F08B89C80FD11D8C89F2
:101AE00090E0DF91CF9108958FEF9FEFFACFCF93E2
:101AF000DF93EC010E942A0D8A89882369F08150C6
:101B00008A8B8B8991E0980F9B8BC80FD11D8C8994
:101B100090E0DF91CF9108958FEF9FEFFACFEF9292
:101B2000FF920F931F93CF93DF9300D01F92CDB7F7
:101B3000DEB7DC011F962C911F97222301F17C0157
:101B4000ED91FC910084F185E02D0995892B11F52B
:101B50008CE48983F70186858A8301E010E09E0189
:101B60002D5F3F4F42E050E0BE016F5F7F4F8485A5
:101B700095850E94150D81E09B81913009F080E0F0
:101B80000F900F900F90DF91CF911F910F91FF90C9
:101B9000EF90089581E0F4CFEF92FF920F931F939F
:101BA000CF93DF9300D01F92CDB7DEB7FC01208921
:101BB000211118C07C01118A8BE4898380E48B8316
:101BC00086858A839F012E5E3F4F00E410E043E04C
:101BD00050E0BE016F5F7F4F848595850E94150D93
:101BE000F701808B0F900F900F90DF91CF911F9195
:101BF0000F91FF90EF900895CF93DF93EC010E9437
:101C0000CC0D8889882341F08989C80FD11D8A8924
:101C100090E0DF91CF9108958FEF9FEFFACFCF92B1
:101C2000DF92EF92FF920F931F93CF93DF93EC011C
:101C30006A017B0110E000E08889811106C0CE01B5
:101C40000E94CC0D8889882399F0E98981E08E0F64
:101C5000898B0F5F1F4FEC0FFD2FF11D8289F7015C
:101C600081937F0188898150888B0C151D0520F395
:101C7000C801DF91CF911F910F91FF90EF90DF90FE
:101C8000CF900895CF93DF93EC010E94CC0D88890B
:101C9000882369F08150888B898991E0980F998B0E
:101CA000C80FD11D8A8990E0DF91CF9108958FEF01
:101CB0009FEFFACFCF93DF93EC010E94CC0D888980
:101CC00090E0DF91CF9108950F931F9310E000E013
:101CD00030E020E00E94150D1F910F9108950F93A1
:101CE0001F93CF93DF9300D0CDB7DEB78C01FC01FB
:101CF0008189882369F087E7898386858A8342E022
:101D000050E0BE016F5F7F4F848595850E94640E11
:101D1000F801118A0F900F90DF91CF911F910F91D1
:101D20000895CF93DF9300D01F92CDB7DEB729E49B
:101D30002983FC0126852A836B8343E050E0BE01A2
:101D40006F5F7F4F848595850E94640E81E090E0EF
:101D50000F900F900F90DF91CF910895CF93DF9365
:101D600000D01F92CDB7DEB7FC01278590E080E060
:101D7000222381F08CE6898386858A836B8343E006
:101D800050E0BE016F5F7F4F848595850E94640E91
:101D900081E090E00F900F900F90DF91CF91089528
:101DA0000F931F93CF93DF9300D0CDB7DEB78C0195
:101DB000FC018785882369F08AE6898386858A8382
:101DC00042E050E0BE016F5F7F4F848595850E94A1
:101DD000640EF8011786108A118A0F900F90DF9118
:101DE000CF911F910F91089590E080E008958F9218
:101DF0009F92AF92BF92CF92DF92EF92FF920F939A
:101E00001F93CF93DF93EC010E94A908CA80DB8067
:101E1000EC80FD804B015C018C189D08AE08BF086A
:101E200008811981012E000C220B330B80169106BC
:101E3000A206B30628F46C157D058E059F0590F467
:101E40006A837B838C839D8381E0DF91CF911F9197
:101E50000F91FF90EF90DF90CF90BF90AF909F9049
:101E60008F90089580E0F1CFCF93DF93EC017983D9
:101E700068830E94A9086A837B838C839D83DF919A
:101E8000CF910895CF93DF93EC01888199810097DA
:101E900011F00E94CD31198218821D821C821B8292
:101EA0001A82DF91CF910895FC0180819181009782
:101EB00011F00C94CD3108958F929F92AF92BF9202
:101EC000EF92FF920F931F93CF93DF93CDB7DEB7BF
:101ED000A1970FB6F894DEBF0FBECDBF7C01FA010B
:101EE000CB0119A2223008F42AE08E010F5D1F4FAA
:101EF000822E912CB12CA12CBF01A50194010E942E
:101F0000EA30F901CA016A3074F5605DD8016E9358
:101F10008D01232B242B252B79F790E080E010975F
:101F200089F0FD0101900020E9F73197AF014A1BCC
:101F30005B0BD701ED91FC910280F381E02DB8019C
:101F4000C7010995A1960FB6F894DEBF0FBECDBFAD
:101F5000DF91CF911F910F91FF90EF90BF90AF90C5
:101F60009F908F900895695CD1CF8F929F92AF928E
:101F7000BF92CF92DF92EF92FF920F931F93CF9376
:101F8000DF937C01EB016C0182E0C80ED11C47019C
:101F9000E5E08E0E911C10E000E0F60141916F012A
:101FA00050E070E060E02AE0CE010E945C0F5C012E
:101FB000E881F9810190F081E02D6EE2CE01099572
:101FC0008A0D9B1D080F191FC814D90431F7F7019A
:101FD000458150E070E060E02AE0CE010E945C0F95
:101FE000800F911FDF91CF911F910F91FF90EF9084
:101FF000DF90CF90BF90AF909F908F900895AF9259
:10200000BF92CF92DF92EF92FF920F931F93CF93E5
:10201000DF9300D000D000D01F92CDB7DEB75C01B7
:102020009B0183E489835A834B83FB010190002049
:10203000E9F731978F01061B170BCC24C394D12CE1
:10204000CE0106967C0143E050E0BE016F5F7F4FFA
:10205000D5011C968D919C910E94630B892BB9F13F
:102060008E81F501868793E69C838D8301E010E0E5
:102070009E01295F3F4F42E050E0BE016C5F7F4F01
:10208000D5011C968D919C910E94150D8F818823FE
:1020900039F061E070E080E090E00E94F207E6CF66
:1020A00081E0F50187870190F081E02D0688F789AE
:1020B000E02DC501099581111DC0D501ED91FC915F
:1020C0000488F589E02DC5010995F501168690E093
:1020D00080E027960FB6F894DEBF0FBECDBFDF912C
:1020E000CF911F910F91FF90EF90DF90CF90BF9015
:1020F000AF90089581E090E0ECCFCF92DF92EF9225
:10210000FF920F931F93CF93DF93DC01CD91DC916E
:10211000E090E003F090E10310E000E0209741F050
:102120006091F4037091F503CE010E94F32E8C01AF
:102130000E945703882309F440C0C090F403D09054
:10214000F503B601C7010E94F32E9801295F3F4FA6
:10215000820F931FC816D90680F16091F203709127
:10216000F30345E050E0C7010E9435037E01E00E15
:10217000F11EFE01EC01CE1BDF0BAE014E0F5F1F07
:102180006091F2037091F303EE15FF0531F0219198
:10219000640F751FDB012C93F0CF05501109A801C6
:1021A000480F591F80E3DF91CF911F910F91FF904E
:1021B000EF90DF90CF900C94B50880E0DF91CF9145
:1021C0001F910F91FF90EF90DF90CF900895FC0149
:1021D00080819181009711F00C94BC2E60E070E03A
:1021E000CB010895CF93DF93DC0114962D913C91A0
:1021F0001597232B79F0FB01CD91DC9160817181E2
:10220000CE010E944533009729F08C1B9D0BDF9176
:10221000CF9108958FEF9FEFFACFFC012481358194
:10222000FB014481558124173507E1F4FC018081CD
:102230009181FB01608171810097D1F06115710579
:10224000A1F4232BC1F0FC01808190E008C0232B76
:1022500091F0FB01808190E091958195910921E0B9
:10226000892B09F020E0822F08950E943533F7CFA3
:102270006115710561F721E0F6CF0F931F93CF939E
:10228000DF938C01EB01FC01808191810097E1F0EB
:102290006881798161157105A9F0428153812C8192
:1022A0003D814217530770F00E943E338C819D811F
:1022B000F801958384831D821C82DF91CF911F9149
:1022C0000F9108950E94CD3188819981F801918301
:1022D00080838A819B81938382838C819D81958376
:1022E0008483198218821B821A82E5CFCF93DF93F1
:1022F000EC018617970711F00E943D11CE01DF9186
:10230000CF9108950F931F93CF93DF93EC018881B2
:102310009981009759F02A813B812617370730F0C1
:1023200081E0DF91CF911F910F9108958B016F5F35
:102330007F4F0E945632009759F0998388831B8300
:102340000A832C813D81232B59F7FC011082E8CFB1
:1023500080E0E7CFEF92FF920F931F93CF93DF932D
:102360006115710541F480E0DF91CF911F910F91CC
:10237000FF90EF90089541155105B1F07B01EC01FC
:102380000C811D81040F151FB8010E948211882342
:1023900051F3288139818C819D81B701820F931F70
:1023A0000E943E331D830C8381E0DECFCF93DF9309
:1023B000EC01FB0144815581608171810E94AA1169
:1023C000811103C0CE010E94420FCE01DF91CF9157
:1023D0000895EF92FF920F931F93CF93DF9300D056
:1023E00000D0CDB7DEB77C01862F4AE08E010F5FAB
:1023F0001F4FB80190E00E94FE2EF80101900020CE
:10240000E9F73197AF01401B510BB801C7010E949A
:10241000AA110F900F900F900F90DF91CF911F9105
:102420000F91FF90EF900895CF93DF9300D0CDB739
:10243000DEB769831A8241E050E0BE016F5F7F4FD3
:102440000E94AA110F900F90DF91CF9108950F93E2
:102450001F93CF93DF93EC018B0141E050E064EADE
:1024600071E08F8598890E94AA11F80144815581F5
:10247000608171818F859889DF91CF911F910F9134
:102480000C94AA11EF92FF920F931F93CF93DF93B7
:10249000EC017B018A01BA010E94821181110BC0FB
:1024A000CE010E94420FCE01DF91CF911F910F917B
:1024B000FF90EF9008951D830C83B7018881998167
:1024C0000E943E33F0CFFB0101900020E9F73197E5
:1024D000AF01461B570B0C944212CF93DF93EC01D4
:1024E000FB018617970749F06081718161157105BD
:1024F00041F0448155810E944212CE01DF91CF917B
:1025000008950E94420FF9CFFC01118210821382BC
:102510001282158214820C946D12FC0111821082B9
:102520001382128215821482FB0101900020E9F7C8
:102530003197AF01461B570B0C944212AF92BF92DA
:10254000CF92DF92EF92FF920F931F93CF93DF937F
:102550006C015B017A0189012417350720F48F2D66
:102560007901042F182F62EC71E0C6010E948D12D0
:10257000D5011496CD91DC91EC16FD06E0F40C1714
:102580001D0708F4E801D501ED91FC911197EC0FBE
:10259000FD1F108110826D917C916E0D7F1DC60113
:1025A00061157105A1F00E946312F501808191818E
:1025B000C80FD91F1883C601DF91CF911F910F91CA
:1025C000FF90EF90DF90CF90BF90AF9008950E9462
:1025D000420FEBCFAF92BF92CF92DF92EF92FF927A
:1025E0000F931F93CF93DF9300D000D000D01F92A2
:1025F000CDB7DEB75C017B0166EA71E0CE010196E2
:102600000E948D12C5010E946F0E86E090E00E942C
:1026100031318C01BE016F5F7F4F0E948412D50162
:1026200050961C930E931F97CE0101960E94540F53
:102630006FEA71E0CE0101960E948D12BE016F5FBC
:102640007F4FC5010E942712CE0101960E94540FB0
:10265000B701C5010E94271282E58F83D5011F961D
:10266000ED91FC915097048115812081318182E0A8
:10267000C82ED12CFE0131967F0141E050E0BE0111
:10268000695F7F4F1C968D919C910E94630B8A819C
:10269000D5011E968C931E971F960D911C910115C6
:1026A000110531F0C8010E94540FC8010E94CD31BC
:1026B000F501108A17868981811102C081E0818B22
:1026C00027960FB6F894DEBF0FBECDBFDF91CF9136
:1026D0001F910F91FF90EF90DF90CF90BF90AF9040
:1026E0000895DF92EF92FF920F931F93CF93DF93A2
:1026F00000D000D0CDB7DEB77C010E94EA1232E7ED
:10270000D32ED982F70186858A8301E010E09E01ED
:102710002D5F3F4F42E050E0BE016F5F7F4F8485E9
:1027200095850E94150D8B81813039F464E670E047
:1027300080E090E00E94F207E4CF87E58B83F70109
:1027400086858C8302E010E09E012F5F3F4F42E0C0
:1027500050E0BE016D5F7F4F848595850E94150D09
:10276000898190E0982F88272A81820F911D0F90F0
:102770000F900F900F90DF91CF911F910F91FF90CD
:10278000EF90DF900895CF92DF92EF92FF920F9338
:102790001F93CF93DF9300D000D000D0CDB7DEB72A
:1027A0007C018B016A0162EC71E0CE0101960E940E
:1027B0008D1262E170E0CE0101960E948211D80173
:1027C00012966C91CE0101960E94E9116EE2CE0143
:1027D00001960E941412F8016381CE0101960E94B5
:1027E000E9116EE2CE0101960E941412D8011496EE
:1027F0006C91CE0101960E94E9116EE2CE01019624
:102800000E941412F8016581CE0101960E94E9111F
:1028100069817A81D701ED91FC910088F189E02DE1
:10282000A601C70109958C01CE0101960E94540FA3
:10283000C80126960FB6F894DEBF0FBECDBFDF915C
:10284000CF911F910F91FF90EF90DF90CF9008955F
:10285000EF92FF920F931F93CF93DF93EC018B01C5
:10286000198218821B821A821D821C82CB010E944F
:10287000EA2E7C01BC01CE010E948211811109C0A7
:10288000CE01DF91CF911F910F91FF90EF900C94AB
:10289000420FFD82EC82B80188819981DF91CF914E
:1028A0001F910F91FF90EF900C94E32ECF92DF9247
:1028B000EF92FF921F93CF93DF9300D000D000D010
:1028C000CDB7DEB789E492E00E94F70E182F882377
:1028D00009F4D5C02091A7023091A8022D3031050E
:1028E00069F480914102909142028B30910514F07D
:1028F0008AE090E090934402809343024091A902C1
:102900005091AA028091AB029091AC024B305105DC
:1029100041F410924402109243028031910579F4FF
:1029200006C04A305105C9F72C303105B1F7209166
:10293000410230914202309344022093430280319D
:10294000910509F0ABC020918302309184022031BF
:10295000310519F190938402809383029093880249
:10296000809387026CE271E089E492E00E94340F68
:1029700010924602109245026CEA70E0CE01019678
:102980000E942814BE016F5F7F4F81E095E00E9496
:10299000EA12CE0101960E94540F80914502909157
:1029A0004602019791F510924602109245028091DD
:1029B0009F029091A0024FEF50E0009711F042E388
:1029C00050E028E730E0009711F028EC30E0892B48
:1029D000C9F490E080E0EFE4F2E06FE772E0518349
:1029E0004083338322839583848336966E177F07D3
:1029F000B1F78091430290914402909348028093F2
:102A0000470217C082E390E0E6CF81E090E0909328
:102A1000460280934502EFE4F2E08FE792E01182F4
:102A20001082138212821582148236968E179F07A7
:102A3000B1F72FE4E22E22E0F22ED12CC12CF701C7
:102A40008081428150E070E060E0762F652F542F46
:102A50004427682B8481482BC6010E94C402FFEFE3
:102A6000CF1ADF0A86E0E80EF11CE8E0CE16D104AA
:102A700031F7809147020E9483020E941307812F41
:102A800026960FB6F894DEBF0FBECDBFDF91CF9173
:102A90001F91FF90EF90DF90CF90089580919D025D
:102AA00090919E028E30910509F052C020918502CE
:102AB000309186022E30310591F0909386028093FA
:102AC0008502909388028093870264E170E089E434
:102AD00092E00E94340F10924602109245028091BB
:102AE00047029091480220914502309146022130E0
:102AF000310571F42091430230914402821793070B
:102B00000CF075C1019690934802809347020DC165
:102B10001816190614F40197F6CF10924802109275
:102B2000470281E090E09093460280934502EFE4F3
:102B3000F2E08FE792E02FEF30E0318320831382C1
:102B400012821582148236968E179F07B1F771CFC5
:102B50008FE090E0909386028093850281E190E07F
:102B600090938402809383028091B9029091BA027B
:102B70008730910509F4DBC080F58530910509F4B3
:102B80007FC08630910509F054CF209187023091A3
:102B900088022630310551F0909388028093870295
:102BA00065E070E089E492E00E94340F8091470272
:102BB00090914802181619060CF4ADCFEFE4F2E03C
:102BC0008FE792E0118210821382128215821482A2
:102BD00036968E179F07B1F72CCF8830910509F4F0
:102BE0000FC18930910509F024CF209187023091DF
:102BF00088022930310591F09093880280938702F2
:102C000062E370E089E492E00E94340F1092800247
:102C100010927F021092400210923F0280913F0278
:102C20009091400220917F023091800246E0429FC5
:102C3000F001439FF00D1124E15BFD4F489FD0014F
:102C4000499FB00D1124A050BF4F4D915C91119739
:102C50005183408312964D915C9113975383428325
:102C600014964D915C91558344832F5F3F4F2830DC
:102C7000310509F414C13093800220937F0239C0DA
:102C800020918702309188022530310551F09093D0
:102C90008802809387026FE070E089E492E00E94EE
:102CA000340F2FE432E04FE752E061EC72E0ABEB1F
:102CB000B2E0F90180819181ED90FD908E159F0524
:102CC00079F08E159F051CF4019691838083808195
:102CD0009181E816F9061CF401979183808310E036
:102CE00032966A177B0731F72A5F3F4F4217530727
:102CF000F1F6809147029091480220914302309171
:102D000044028217930709F494CE821793072CF498
:102D100001969093480280934702809147029091D8
:102D20004802281739070CF4F6CE10E082CE209125
:102D300087023091880227303105B1F090938802E4
:102D4000809387028091C3029091C40264E170E095
:102D5000029711F06EE170E089E492E00E94340F76
:102D600010924602109245022FE432E04FE752E003
:102D700061EC72E0ABEBB2E0F90180819181ED9002
:102D8000FD908E159F0579F08E159F051CF4019618
:102D90009183808380819181E816F9061CF4019764
:102DA0009183808310E032966A177B0731F72A5FA0
:102DB0003F4F42175307F1F6809147029091480226
:102DC00020914502309146022130310509F492CE1E
:102DD000181619060CF49FCE109248021092470262
:102DE00081E090E0909346028093450222CE30939A
:102DF000480220934702109246021092450219CED3
:102E000020918702309188022830310571F090932B
:102E10008802809387026CE271E089E492E00E946C
:102E2000340F109246021092450280914502909113
:102E300046020197F9F41092460210924502609101
:102E4000BB027091BC024091BD025091BE02209124
:102E5000BF023091C002EFE4F2E08FE792E07183AD
:102E60006083538342833583248336968E179F076E
:102E7000B1F7BFCD81E090E0909346028093450288
:102E8000EFE4F2E08FE792E0118210821382128267
:102E90001582148236968E179F07B1F7CACD10920D
:102EA000800210927F0201968330910529F0909361
:102EB000400280933F021DCF1092400210923F02C9
:102EC00018CF0F931F93CF93DF93CDB7DEB76897DB
:102ED0000FB6F894DEBF0FBECDBF97FF02C090E0E3
:102EE00080E08B30910514F08AE090E090938202AC
:102EF000809381021C8A1B8A1E8A1D8A188E1F8A53
:102F00004AE0BE016F5F7F4F2AE0FC012E9FC001A7
:102F10002F9F900D11240E94FE2EBE016F5F7F4FE8
:102F2000CE0143960E94631262EB71E0CE010196DE
:102F30000E948D12BE016D5E7F4FCE0101960E94F0
:102F4000D6118C0141E050E063EC71E00E94AA11BF
:102F5000811103C0C8010E94420FB8018DEA94E0BC
:102F60000E94EA12CE0101960E94540FCE014396B0
:102F70000E94540F68960FB6F894DEBF0FBECDBF07
:102F8000DF91CF911F910F9108954F925F926F92B1
:102F90007F928F929F92AF92BF92CF92DF92EF92E9
:102FA000FF920F931F93CF93DF93CDB7DEB7689750
:102FB0000FB6F894DEBF0FBECDBF8C016BE671E09B
:102FC000CE0101960E942814BE016F5F7F4FC80199
:102FD0000E94F2107C01CE0101960E94540FEF284E
:102FE00009F06FC267E671E0CE0101960E942814D5
:102FF000BE016F5F7F4FC8010E94F2107C01CE01BD
:1030000001960E94540F1E141F04ECF486E090E019
:103010009093BA028093B90268960FB6F894DEBF17
:103020000FBECDBFDF91CF911F910F91FF90EF9019
:10303000DF90CF90BF90AF909F908F907F906F90D8
:103040005F904F9008956FE571E0CE0101960E9468
:103050002814BE016F5F7F4FC8010E94F2107C01EF
:10306000CE0101960E94540F1E141F040CF0DAC00A
:1030700089E090E09093BA028093B902F80124812C
:1030800035814EE050E0B801CE0101960E949E12BB
:10309000BE016F5F7F4FC8010E947611CE0101967D
:1030A0000E94540F6DE571E0CE0101960E94281434
:1030B000BE016F5F7F4FC8010E94F2107C01CE01FC
:1030C00001960E94540F970150E040E0B801CE01F4
:1030D00001960E949E12CE0101960E94E71029E1FE
:1030E000269FA001279F500D112450934402409326
:1030F00043025093420240934102CE0101960E9446
:10310000540FF80124813581A7014F5F5F4FB8014B
:10311000CE0101960E949E12BE016F5F7F4FC801D3
:103120000E947611CE0101960E94540FCE010196A5
:103130007C015E0191E1A90EB11C6BE571E0CE014D
:1031400043960E942814BE016D5E7F4FC8010E9405
:10315000F2106C01CE0143960E94540F960150E08C
:1031600040E0B801CE0143960E949E12CE014396E4
:103170000E94E710F701619371937F01CE0143969E
:103180000E94540FF80124813581A6014F5F5F4FE3
:10319000B801CE0143960E949E12BE016D5E7F4F24
:1031A000C8010E947611CE0143960E94540FEA1482
:1031B000FB0419F6C8010E94E710AF84B8882D857A
:1031C0003E854B855C85E985FA85AF81B8850D81A3
:1031D0001E81EB80FC80C980DA80D0920101C09210
:1031E0000001F0920301E0920201109305010093A7
:1031F0000401B0930701A0930601F0930901E09345
:10320000080150930B0140930A0130930D01209364
:103210000C01B0920F01A0920E0170931101609306
:103220001001FACE68E571E0CE0101960E942814E3
:10323000BE016F5F7F4FC8010E94F2107C01CE017A
:1032400001960E94540F1E141F040CF0AEC085E0BE
:1032500090E09093BA028093B902F80124813581FD
:1032600049E050E0B801CE0101960E949E12BE01D5
:103270006F5F7F4FC8010E947611CE0101960E94B8
:10328000540F6BE471E0CE0101960E942814BE0138
:103290006F5F7F4FC8010E94F2107C01CE01019642
:1032A0000E94540F970150E040E0B801CE01019612
:1032B0000E949E12CE0101960E94E71029E1269FEE
:1032C000A001279F500D11245093440240934302C4
:1032D0005093420240934102CE0101960E94540F46
:1032E000F80124813581A7014F5F5F4FB801CE01FE
:1032F00001960E949E12BE016F5F7F4FC8010E941F
:103300007611CE0101960E94540F69E471E0CE015E
:1033100001960E942814BE016F5F7F4FC8010E9472
:10332000F2106C01CE0101960E94540F67E471E027
:10333000CE0101960E942814F801848195812D8187
:103340003E815C01A21AB30A2115310509F46EC051
:10335000009709F46BC08217930708F467C0A8169A
:10336000B90620F05C01F1E0AF1AB108F8018080E5
:10337000918049805A80C401EE24EA94FE2C3401E5
:103380006A0C7B1C6816790608F453C0B2010E94CF
:103390004533009709F44DC09C0128193909A2163C
:1033A000B30608F079010196EDCF63E571E0CE0137
:1033B00001960E942814BE016F5F7F4FC8010E94D2
:1033C000F2107C01CE0101960E94540F1E141F04BE
:1033D00064F487E090E09093BA028093B902F80118
:1033E000248135814BE050E03DCF6DE471E0CE01AA
:1033F00001960E942814BE016F5F7F4FC8010E9492
:10340000F2107C01CE0101960E94540F1E141F047D
:103410000CF037CF88E090E09093BA028093B90225
:10342000F801248135814CE050E01CCFEE24EA9471
:10343000FE2CCE0101960E94540F960150E040E010
:10344000B801CE0101960E949E12CE0101960E9403
:10345000E7104B01CE0101960E94540FA6014F5F69
:103460005F4F9701B801CE0101960E949E12CE01D6
:1034700001960E94E7102B01CE0101960E94540F85
:10348000F80124813581A7014F5F5F4FB801CE015C
:1034900001960E949E12CE0101960E94E7106B01D8
:1034A000CE0101960E94540F9092BC028092BB0202
:1034B0005092BE024092BD02D092C002C092BF02A2
:1034C000ABCD6CE371E0CE0101960E942814BE01E1
:1034D0006F5F7F4FC8010E94F2107C01CE01019600
:1034E0000E94540FEF2889F56AE371E0CE0101963E
:1034F0000E942814BE016F5F7F4FC8010E94F21026
:103500007C01CE0101960E94540FF801248135817F
:10351000A7014F5F5F4FB801CE0101960E949E1236
:10352000CE0101960E94E71029E1269FA001279F66
:10353000500D112450934402409343025093420291
:1035400040934102CE010196A0C064E371E0CE0138
:1035500001960E942814BE016F5F7F4FC8010E9430
:10356000F2107C01CE0101960E94540FEF2809F061
:10357000A9C08091A9029091AA020B9709F44CCDA1
:1035800080919D0290919E020E9709F445CD809105
:10359000A7029091A8020D9709F43ECD8091AB024D
:1035A0009091AC02409709F437CD6FE271E0CE0103
:1035B00001960E942814BE016F5F7F4FC8010E94D0
:1035C000F2107C01CE0101960E94540F1E141F04BC
:1035D0000CF05EC0F801248135814BE050E0B80169
:1035E000CE0101960E949E12BE016F5F7F4FC801FF
:1035F0000E947611CE0101960E94540F6DE271E097
:10360000CE0101960E942814BE016F5F7F4FC80152
:103610000E94F2107C01CE0101960E94540F970186
:1036200050E040E0B801CE0101960E949E12CE010A
:1036300001960E94E710CB010E946117CE0101960E
:103640000E94540FF80124813581A7014F5F5F4F1D
:10365000B801CE0143960E949E1265EC71E0CE0146
:1036600001960E948D12BE016D5E7F4FCE010196C4
:103670000E94D611BC0181E095E00E94EA12CE01C1
:1036800001960E94540FCE0143960E94540FC4CC61
:1036900068E271E0CE0101960E942814BE016F5FBE
:1036A0007F4FC8010E94F2108C01CE0101960E944A
:1036B000540F101611060CF0AFCC81E095E00E947B
:1036C0006F0EAACC61E271E0CE0101960E9428142F
:1036D000BE016F5F7F4FC8010E94F2107C01CE01D6
:1036E00001960E94540FEF2891F580919D029091D0
:1036F0009E020E9709F490CC8091AB029091AC029F
:10370000409709F489CC6FE171E0CE0101960E94E7
:103710002814BE016F5F7F4FC8010E94F2107C0128
:10372000CE0101960E94540FF80124813581A70132
:103730004F5F5F4FB801CE0101960E949E12CE01ED
:1037400001960E94E710CB010E946117FBCE63E156
:1037500071E0CE0101960E942814BE016F5F7F4F79
:10376000C8010E940D11F82ECE0101960E94540F3F
:10377000FF2059F063E874E0CE0101960E948412A4
:10378000CE0101960E947D10DDCE6EE071E0CE018B
:1037900001960E942814BE016F5F7F4FC8010E94EE
:1037A0000D11F82ECE0101960E94540FFF2039F022
:1037B0008AE090E09093AA028093A9022DCC68E061
:1037C00071E0CE0101960E942814BE016F5F7F4F09
:1037D000C8010E940D11F82ECE0101960E94540FCF
:1037E000FF2039F08BE090E09093AA028093A90229
:1037F00064CF60E071E0CE0101960E942814BE0102
:103800006F5F7F4FC8010E940D11F82ECE01019607
:103810000E94540FFF2039F080E190E09093AC02B9
:103820008093AB02F9CB63EF70E0CE0101960E946A
:103830002814BE016F5F7F4FC8010E940D11182F21
:10384000CE0101960E94540F112309F4E5CB81E0CB
:1038500080939002E1CBCF92DF92EF92FF920F9391
:103860001F93CF93DF93CDB7DEB72C970FB6F894A5
:10387000DEBF0FBECDBF6B017A0162EC71E084ED5B
:1038800093E00E9463128601EC0CFD1C0E151F05CF
:1038900041F0F80161918F0184ED93E00E941412D0
:1038A000F5CF66EE71E0CE0101960E948D1264EDB7
:1038B00073E0CE0101960E94D6118C0149E050E0E0
:1038C00062EF71E00E94AA11811103C0C8010E9439
:1038D000420FB801CE0107960E948412CE010796CE
:1038E0000E947D10CE0107960E94540FCE010196D2
:1038F0000E94540F61EF70E0CE0101960E942814DF
:10390000BE016F5F7F4F84ED93E00E94F2108C0147
:10391000CE0101960E94540F17FF1DC064ED73E0A5
:10392000CE0101960E948412CE0101960E94C51715
:10393000CE0101960E94540F2C960FB6F894DEBF6C
:103940000FBECDBFDF91CF911F910F91FF90EF90F0
:10395000DF90CF90089598012150310950E040E068
:1039600064ED73E0CE0101960E949E12CE01019695
:103970000E94C517CE0101960E94540F2091D803D2
:103980003091D903A8014E5F5F4F64ED73E0CE0123
:1039900001960E949E12BE016F5F7F4F84ED93E0FF
:1039A0000E943D11CE0101960E94540FA3CF809139
:1039B0009D0290919E020E9781F48091AB029091AE
:1039C000AC02419751F481E095E00E946F0E809126
:1039D0008102909182020E9461178FE090E09093A3
:1039E0009E0280939D021092A00210929F02089561
:1039F0001F920F920FB60F9211248F939F93809175
:103A0000E1009091E100937F9093E10083FF0FC06C
:103A10001092E90091E09093EB001092EC0092E399
:103A20009093ED001092DA0298E09093F00082FFFC
:103A300022C093E09093E9009091F200992319F04D
:103A40009AE39093E8009091CB02992341F09091F2
:103A5000CB0291509093CB02911101C05D9A90914D
:103A6000D902992341F09091D90291509093D902B3
:103A7000911101C0289A84FF18C08091E2008E7EC7
:103A800081608093E2008091E1008F7E8093E1006D
:103A90008091CC028E7E80618093CC029F918F9129
:103AA0000F900FBE0F901F90189580FFF7CF809159
:103AB000E2008E7E80618093E2008091E1008E7E44
:103AC0008093E1008091CC028E7E8160E5CF1F92D1
:103AD0000F920FB60F921124CF92DF92EF92FF92C6
:103AE0000F931F932F933F934F935F936F937F9306
:103AF0008F939F93AF93BF93EF93FF93CF93DF93F6
:103B0000CDB7DEB76C97DEBFCDBF1092E9008091D4
:103B1000E80083FF25C068E0CE0145960E94E404DA
:103B200082EF8093E8008D8987FF39C09091E8008B
:103B300090FFFCCF982F907609F034C19E894F8971
:103B4000588D2F89F88C911131C0803861F58091A2
:103B5000CA028093F1001092F1008EEF8093E8008A
:103B60006C960FB6F894DEBF0FBECDBFDF91CF913C
:103B7000FF91EF91BF91AF919F918F917F916F9145
:103B80005F914F913F912F911F910F91FF90EF9077
:103B9000DF90CF900F900FBE0F901F9018959EEF63
:103BA0009093E800C7CF1092F100D5CF913059F42F
:103BB0008111D3CF4130510581F68091CA028D7FAA
:103BC0008093CA02CACF933049F48111C6CF4130E5
:103BD000510519F68091CA028260F2CF953041F406
:103BE0008091E80080FFFCCF20682093E300B5CFF0
:103BF000963009F0A9C00B8D1C8D22E01092E900CF
:103C00001092C8021092C702F2122EC01092C60281
:103C10001092C5020E94B3041F8299E09983FA8230
:103C200091E09E8390EA98879AEF99872091C70246
:103C30003091C802275F3F4F3C832B838D831092C6
:103C4000E9001092C8021092C7021093C6020093B6
:103C5000C50249E050E0BE016F5F7F4F80E00E94E7
:103C60008D040E94B30479CF1093C6020093C5025D
:103C70000E94CA03DC0112960D911C9101151105D9
:103C800009F451C1D801ED91FC910480F581E02D3A
:103C9000BE016B5E7F4FC8010995009709F03EC1D8
:103CA000F80100851185EACFF3E0FF120EC08F897D
:103CB000882309F440C0823061F440E86BE089E277
:103CC00094E00E943B20811148CF81E28093EB0079
:103CD00047CF813029F440E86BE08DE194E0F1CFEB
:103CE000833099F70E94CA03DC011296ED90FC9094
:103CF0008E010F5F1F4F6801E114F10479F0D701C5
:103D0000ED91FC910680F781E02DB801C70109957E
:103D1000080F111DF701E084F184EECFD8011C9249
:103D2000F60101900020E9F73197BF016C197D0978
:103D300040E0C601C6CF67E074E0FB01449150E06B
:103D400080E80E948D0409CF973009F4BECF9830E7
:103D500021F481E08093F10000CF993009F0FDCE8D
:103D6000837009F0B2CFE6E3F1E081E031E096E361
:103D70002191222371F08093E9003093EB00DF0161
:103D800011972C912093EC009093ED008F5F87307A
:103D900079F78EE78093EA001092EA008F8980938A
:103DA000DA02DBCE8B8D9C8D1092E9001092C80256
:103DB0001092C7029093C6028093C502898D81112B
:103DC00092C08E899D89913A49F4813209F07DCF64
:103DD00047E050E066E171E080E0B3CF913209F056
:103DE00074CF833269F48F89988DB0E0A0E080931E
:103DF000120190931301A0931401B0931501ADCE5D
:103E0000803269F48091E80082FFFCCF67E086E1B0
:103E100091E00E94E4048BEF8093E8009ECE823212
:103E200009F09BCE8F8980931D01EEEFFFE785910E
:103E300094918B3F9C4D51F1E0E0F8E080911601A8
:103E400090911701A0911801B0911901803B944005
:103E5000A105B105F1F480911D0180FD1AC0EE3F6E
:103E60008AE0F80789F587E797E791838083809157
:103E700060008093C90288E19BE00FB6F894A89592
:103E8000809360000FBE9093600067CEEEEFFAE083
:103E9000D5CF808191818737974709F05ECEA8956D
:103EA000809160008861809360008091C902809356
:103EB0006000EE3F2AE0F20789F08091FE0A9091BF
:103EC000FF0A9183808349CE80819181873798074B
:103ED00051F29093FF0A8093FE0AC5CF1092FF0A19
:103EE0001092FE0A3ACE0E94CA03DC0112960D918E
:103EF0001C910115110509F4E8CED801ED91FC9152
:103F00000190F081E02DBE016B5E7F4FC8010995E5
:103F1000811123CEF80100851185EBCF1816190603
:103F20000CF41BCED2CEF1E0FF12BECE6BE074E0FB
:103F300004CF1F920F920FB60F9211242F933F932D
:103F40004F935F936F937F938F939F93AF93BF93A1
:103F5000EF93FF9387E393E00E949405FF91EF9125
:103F6000BF91AF919F918F917F916F915F914F9191
:103F70003F912F910F900FBE0F901F9018951F9299
:103F80000F920FB60F9211242F938F939F93EF935D
:103F9000FF93E0914703F09148038081E0914D0346
:103FA000F0914E0382FD1BC09081809150038F5F82
:103FB0008F7320915103821741F0E0915003F0E09C
:103FC000E95CFC4F958F80935003FF91EF919F9197
:103FD0008F912F910F900FBE0F901F901895808199
:103FE000F4CF1F920F920FB60F9211242F933F938D
:103FF0008F939F93AF93BF93809137029091380234
:10400000A0913902B0913A023091360223E0230F99
:104010002D3758F50196A11DB11D209336028093CE
:10402000370290933802A0933902B0933A028091FC
:104030003B0290913C02A0913D02B0913E0201965C
:10404000A11DB11D80933B0290933C02A0933D02C1
:10405000B0933E02BF91AF919F918F913F912F916D
:104060000F900FBE0F901F90189526E8230F029611
:10407000A11DB11DD2CFEF92FF920F931F93CF934B
:10408000DF93F82E192FE62E042F81E0860F880F7C
:104090000E945F0483E00E945F04CF2DD12FEC0EBD
:1040A000FD2EF11CCE15DF05B9F007FF13C0FE0190
:1040B00084910E945F04182F80E00E945F04812396
:1040C00021968111EFCFDF91CF911F910F91FF903A
:1040D000EF9008958881EDCF81E0F5CFCF92DF9208
:1040E000EF92FF92CF93DF931092DE021092DD02E7
:1040F00098EEC92E93E0D92EE12CF12CC092DF026C
:10410000D092E002E092E102F092E20280E491E0DB
:104110009093DC028093DB028FEF9FEF9093E80295
:104120008093E70287E393E010923A0310923903F9
:10413000C0923B03D0923C03E0923D03F0923E03D9
:1041400022E531E030933803209337032DEC30E043
:1041500030934403209343032CEC30E03093460328
:104160002093450328EC30E0309348032093470325
:1041700029EC30E030934A03209349032AEC30E0E5
:1041800030934C0320934B032EEC30E030934E03DE
:1041900020934D031092500310925103109252033A
:1041A0001092530320E931E030932C0320932B032A
:1041B00010922D0310922E0310922F0310923003B1
:1041C000309332032093310310923303109234035F
:1041D0001092350310923603C5E5D5E010925505CF
:1041E00090935B0580935A0510925C0510925D05D3
:1041F00090935F0580935E056CEF71E084EB95E032
:104200000E948D121092630510926205C09264059F
:10421000D0926505E0926605F092670586E991E027
:104220009093610580936005D0936D05C0936C05F4
:104230001092710510927205109273051092040588
:1042400010920305C0920505D0920605E09207057D
:10425000F09208059093020580930105D0930E0516
:10426000C0930D05109212051092130510921405BB
:104270001092B0041092AF04C092B104D092B20474
:10428000E092B304F092B4049093AE048093AD0432
:10429000D093BA04C093B9041092BE041092BF0424
:1042A0001092C00481E090E09093900480938F047A
:1042B00086E391E0909396048093950480EE95E7D1
:1042C000A9E0B0E08093970490939804A093990498
:1042D000B0939A0480E29EE4A0E0B0E080939B0457
:1042E00090939C04A0939D04B0939E0461E084E0AD
:1042F0000E94BD0660E082E00E94BD0684E00E944C
:104300006D06E3E9F4E0E491E093A704E4E7F4E068
:10431000E491F0E0EE0FFF1FEE59FB4F8591949171
:104320009093A9048093A804E1E9F4E0E491E09378
:10433000AA04E2E7F4E0E491F0E0EE0FFF1FEE598B
:10434000FB4F859194919093AC048093AB048FEFD5
:104350009FEFAFEFBFE08093910490939204A093FE
:104360009304B09394040E94A90860939F047093EF
:10437000A0048093A1049093A20462EC71E089E808
:1043800094E00E948D1262EC71E083E894E00E9458
:104390008D1210926E041092750410927C0410928B
:1043A0007D0410927E0410927F0481E080937B0450
:1043B000809378041092790492E090937A04809329
:1043C0006D0488E190E090937204809371040E94E0
:1043D00031319093770480937604009709F4BBC041
:1043E00028E1FC0111922A95E9F788E090E090938A
:1043F000700480936F0486E090E09093740480933F
:10440000730480916E04882339F061E086E00E9495
:10441000BD0686E00E946D06E6E7F4E0E491F0E078
:10442000EE0FFF1FEC5AFB4F8591949190938104FE
:1044300080938004E5E9F4E0E491E093820480E96C
:1044400091E090936804809367041092690410923D
:104450006A0410926B0410926C041092180410926B
:10446000170448EE53E060E070E040931904509365
:104470001A0460931B0470931C0420E731E030930E
:1044800016042093150425E535E03093220420938B
:1044900021041092230410922404109225041092F7
:1044A000EF031092EE0324E631E03093ED03209306
:1044B000EC0390930804809307041092090410926F
:1044C0000A0410920B0410920C048FEF9FEF90934C
:1044D00014048093130485E194E09093F103809396
:1044E000F003109212041092110480E091E00E94F7
:1044F00031319093F3038093F20380E091E0909345
:10450000F5038093F4038FE090E09093F70380939A
:10451000F6039093F9038093F80362EC71E086EE62
:1045200093E00E948D1262EC71E080EE93E00E94B5
:104530008D1262EC71E08AED93E00E948D1262ECC4
:1045400071E084ED93E0DF91CF91FF90EF90DF90E9
:10455000CF900C948D1210927204109271041092EC
:10456000700410926F0447CFCF93DF93CDB7DEB7BF
:1045700065970FB6F894DEBF0FBECDBF789484B5B3
:10458000826084BD84B5816084BD85B5826085BD4F
:1045900085B5816085BD80916E00816080936E00DD
:1045A00010928100809181008260809381008091CF
:1045B0008100816080938100809180008160809380
:1045C00080008091910082608093910080919100A1
:1045D0008160809391008091900081608093900031
:1045E0008091C10084608093C1008091C10082608D
:1045F0008093C1008091C10081608093C10080914F
:10460000C30081608093C3008091C000826080936A
:10461000C0008091C20081608093C20080917A00C6
:10462000846080937A0080917A00826080937A001F
:1046300080917A00816080937A0080917A0080680E
:1046400080937A001092DA021092CA021092CC0281
:104650008091D70081608093D70080EA8093D80052
:1046600089B5806189BD89B5826089BD09B400FEC4
:10467000FDCF61E070E080E090E00E94F207809161
:10468000D8008F7C80618093D8008091E000807F8B
:104690008093E0008091E1008E7E8093E1008DE0C8
:1046A0008093E200559A209A1092C4021092C3029D
:1046B0001092C2021092C1021092BA021092B90274
:1046C00010928802109287028AE090E09093AA02EA
:1046D0008093A9028CE090E09093A8028093A702B7
:1046E0008FE090E090939E0280939D0290938602CB
:1046F0008093850281E190E09093AC028093AB02BD
:10470000909384028093830260ED77E081E992E0E8
:104710000E94340F68EE73E083EB92E00E94340F46
:1047200068EE73E081EA92E00E94340F68EE73E075
:1047300087E992E00E94340F1092A00210929F022B
:1047400010928F021092900260E08CE00E94BD06F1
:1047500060E088E00E94BD0683E090E090938202D2
:10476000809381028FEF9FEFDC0180939B049093F5
:104770009C04A0939D04B0939E0480917304909137
:10478000740497FD07C061E00E94BD068091730428
:104790000E946D0681E080936E040E9413078EE1F3
:1047A0000E94830264E070E089E492E00E94340F8A
:1047B0008EE190E09093480280934702109280022D
:1047C00010927F0221E030E03093460220934502B0
:1047D000909344028093430290934202809341025B
:1047E0001092400210923F028FE0B82E8B2D90E085
:1047F000B0E0A0E07C01DD24CC244427582F692FB1
:104800007A2FC42AD52AE62AF72ACB28D92AEA2AD7
:10481000FB2A10E000E0B701A601C8010E94C40213
:104820000F5F1F4F08301105B1F70E9413076EE1AB
:1048300070E080E090E00E94F207AFE08A2EB80CB2
:10484000BEE09B2EB910D2CFF0EF2F2E312CC090AE
:104850007F02D090800286010F5F1F4F0830110544
:1048600011F410E000E020EF2C8B8C88882D90E074
:10487000B0E0A0E03C01552444244427582F692F80
:104880007A2F442A552A662A772A4828592A6A2ADA
:104890007B2A8094882D90E0B0E0A0E05C01992410
:1048A00088244427582F692F7A2F842A952AA62AEC
:1048B000B72A882A992AAA2ABB2AF12CE12CB50109
:1048C000A401C601CE14DF0459F0B301A201C8014E
:1048D0000E151F0529F04FEF5FEF6FEF70E0C70176
:1048E0000E94C4022FEFE21AF20A38E0E316F10444
:1048F00031F70E9413076FE070E080E090E00E94C3
:10490000F2078C898F508C8B813F09F0AECF1093CA
:10491000800200937F0291E0291A310809F097CFB5
:104920004FE0D42E8D2D90E0B0E0A0E05C01992402
:1049300088244427582F692F7A2F842A952AA62A5B
:10494000B72A8D28992AAA2ABB2AF12CE12C4FEFED
:104950005FEF6FEF70E0C7010E151F0519F4B50189
:10496000A401C8010E94C402AFEFEA1AFA0AB8E033
:10497000EB16F10461F70E9413076FE070E080E02E
:1049800090E00E94F207EFE0DE0EFEE0DF12CACFF9
:104990001092800210927F02EFE4F2E02FE732E003
:1049A0008FEF90E0918380839383828395838483C8
:1049B00036962E173F07B1F7E0915E05F0915F053F
:1049C000A089B18982E08C93A485B5851C92A685C7
:1049D000B78587E08C93108EA489B58986E08C9387
:1049E000A289B3898C9180618C93A289B3898C91BF
:1049F00088608C93A289B3898C9180688C9302889B
:104A0000F389E02D80818F7D808380915C05811109
:104A1000B9C081E080935C0585E595E00E94FB0AC2
:104A200068EE73E080E090E00E94F20780915A0502
:104A300090915B05DC01ED91FC910084F185E02D06
:104A400009951816190644F3FF24F394F2E3EF2EA8
:104A500085E0E4E2F1E0DE01189601900D928A957E
:104A6000E1F7F0925D0545E050E0BE01685F7F4FE1
:104A700085E595E00E94640E80915A0590915B0552
:104A8000DC01ED91FC910190F081E02D63E009954E
:104A90006AEF70E080E090E00E94F2076DE871E05C
:104AA00080915A0590915B050E94F2046AEF70E0D4
:104AB00080E090E00E94F2076BE871E080915A0577
:104AC00090915B050E94F20464EF71E080E090E059
:104AD0000E94F2076FE771E080915A0590915B05A3
:104AE0000E94F20464EF71E080E090E00E94F2071F
:104AF00085E595E00E94FB0A85E0E9E2F1E0DE0150
:104B0000119601900D928A95E1F7E0925D0504E01F
:104B100010E09E01225F3F4F45E050E0BE016F5F15
:104B20007F4F85E595E00E94150D8F3F980739F47A
:104B300068EE73E080E090E00E94F20789CF2E8556
:104B40002111FFCF049709F046C02F852053330B66
:104B500044E6429FC001439F900D11242889EAE05A
:104B60002E9F800D911D1124805E91402989205334
:104B7000330B820F931F909357058093560582E362
:104B800080935D0562EC71E089E894E00E94631215
:104B90006FE871E0CE0101960E942814BE016F5F9C
:104BA0007F4F8DEA94E00E947113CE0101960E941E
:104BB000540F8DEA94E00E942A0D8091BF0488234F
:104BC00069F08DEA94E00E94770D682F89E894E0FF
:104BD0000E941412EECF84E690E0CDCFC0908904FD
:104BE000D0908A04C114D10449F000918D04109131
:104BF0008E0476010115110509F0C6C064EB75E05D
:104C0000CE010E960E94841269E874E0CE010E96E1
:104C10000E94D611BC01CE0108960E948412BE01EA
:104C2000685F7F4F86EE93E00E946D1264E072E051
:104C3000CE0101960E948D12BE01685F7F4FCE01AA
:104C400001960E94D611BC0180EE93E00E946D1285
:104C5000CE0101960E94540F67E072E0CE010196EA
:104C60000E948D12BE01685F7F4FCE0101960E94A7
:104C7000D611BC018AED93E00E946D12CE0101961F
:104C80000E94540F8AE092E090930E0480930D04EA
:104C90008BE597E09093100480930F048BE29CE1E6
:104CA0009093060480930504CE0108960E94540F49
:104CB000CE010E960E94540F6AEE71E0CE0101966D
:104CC0000E942814BE016F5F7F4F81E095E00E9433
:104CD0007113CE0101960E94540F64EF71E080E0E1
:104CE00090E00E94F20761EC71E0CE0101960E9413
:104CF0002814BE016F5F7F4F81E095E00E94711321
:104D0000CE0101960E94540F64EF71E080E090E0C4
:104D10000E94F2076CEA71E0CE0101960E9428140D
:104D2000BE016F5F7F4F81E095E00E947113CE015D
:104D300001960E94540F80919002882309F460C06C
:104D4000E4E08E2E912C9092C4028092C302809156
:104D5000C3029091C4028230910509F495C108F014
:104D6000F5C0009709F463C18130910509F46BC166
:104D700080E090E0892BF9F20E9480058823D9F227
:104D80000E940000D8CF75015701FFEFAF1ABF0A8C
:104D9000D7018C91082E000C990B0E94382F892B7B
:104DA00091F7015011090C0D1D1DF8018081082E8D
:104DB000000C990B0E94382F892B31F00E151F051E
:104DC00018F001501109F1CFA8014F5F5F4F4E1944
:104DD0005F0950938E0440938D04CE14DF0420F4B9
:104DE000B701C6010E941333E0918904F0918A044F
:104DF00080918D0490918E04E80FF91F1082FECEF1
:104E000080918F02811136C08CE00E949406019738
:104E100049F481E080938F0268E873E189E892E0C9
:104E20000E94340F0091C3021091C40281E992E004
:104E30000E94F70E8823C9F080E695E00E942A0DB3
:104E400080917205811125C064E272E0CE01019665
:104E50000E942814BE016F5F7F4F80E695E00E949C
:104E6000EA12CE0101960E94540F1093C4020093DF
:104E7000C3026DCF8CE00E949406892B19F4109226
:104E80008F02D0CF89E892E00E94F70E882351F27A
:104E900057CF62EC71E083E894E00E94631280E6F1
:104EA00095E00E942A0D80917205882351F080E6DA
:104EB00095E00E94770D682F83E894E00E94141219
:104EC000EECF67E172E0CE0101960E942814BE0188
:104ED0006F5F7F4F83E894E00E94F2107C01CE0167
:104EE00001960E94540FF7FE2BC06AE072E0CE01DB
:104EF00001960E942814BE016F5F7F4F83E894E003
:104F00000E94F2107C01CE0101960E94540FF7FC22
:104F1000ACCF6DEF71E0CE0101960E942814BE0166
:104F20006F5F7F4F83E894E00E94F2108C01CE0106
:104F300001960E94540F17FD06C002E010E095CFC5
:104F400001E010E092CF03E010E08FCF83309105B5
:104F500009F46AC68430910509F00ACF2091C10294
:104F60003091C2022430310509F4A9C69093C202DF
:104F70008093C102409171045091720470E060E02E
:104F800080917604909177040E942E330E9413073B
:104F900081E095E00E946F0EE091F203F091F3033F
:104FA00080EE8083E091F203F091F303118280910F
:104FB000F0039091F1036091F2037091F303DC012F
:104FC000ED91FC910280F381E02D42E050E00995E3
:104FD0008FEF9FEF90931404809313048091F0035C
:104FE0009091F103DC01ED91FC910680F781E02DB9
:104FF00009958091F0039091F103DC01ED91FC9112
:105000000488F589E02D09950E94A9086093FC03A6
:105010007093FD038093FE039093FF03609300045D
:10502000709301048093020490930304A1CE8091B5
:10503000C1029091C202892B09F49ACE1092C20249
:105040001092C10295CE2091C1023091C20221304E
:10505000310509F431C69093C2028093C1028FEFEB
:1050600090E09093BC028093BB029093BE02809329
:10507000BD029093C0028093BF0287E090E09093BE
:10508000BA028093B90274CE2091C1023091C2025B
:105090002230310549F19093C2028093C1028CE322
:1050A00090E09093BC028093BB0288E790E09093DD
:1050B000BE028093BD029093C0028093BF0275E050
:1050C000A72EB12CB092BA02A092B9026AE973E09D
:1050D000CE0101960E942814BE016F5F7F4F81E0D0
:1050E00095E00E94EA1210C583EB92E00E94F70E51
:1050F000882309F45EC00E9457038111ACC1E0907F
:10510000E603F090E7030E94570381114CC18091A0
:10511000F0039091F103DC01ED91FC910688F78991
:10512000E02D0995882309F492C0E1E0F0E0F093C6
:10513000FB03E093FA0387E0EEE2F1E0DE01119673
:1051400001900D928A95E1F7DE01119685E090E0DD
:105150002D91E091F203F091F303E80FF91F208302
:1051600001968C309105A1F70091F2031091F303A1
:1051700082E0F80184878091F70385878091F603A8
:105180008687C090F403D090F503B601C7010E9452
:10519000F32E4196C816D90608F090C08091F0030E
:1051A0009091F103DC01ED91FC910488F589E02DEB
:1051B000099587E992E00E94F70E882379F188E04B
:1051C0000E949406019709F0ABC28091A7029091CA
:1051D000A8020D97E9F48091AB029091AC0241973F
:1051E000B9F48091A9029091AA020A9789F46FE517
:1051F00072E0CE0101960E942814BE016F5F7F4FBE
:1052000081E095E00E94EA12CE0101960E94540FBF
:10521000ECE0F0E0F093A802E093A7020E9456149D
:105220008091AB029091AC02419709F092C28091BB
:10523000A9029091AA020B9739F08091A702909150
:10524000A8020D9709F085C20E94D71C91CD6091EC
:105250000D0470910E048091F0039091F103DC0134
:10526000ED91FC9140910F0450911004611571056E
:1052700071F00088F189E02D0995019709F455CF67
:105280008EEF9FEF909314048093130492CF0684C3
:10529000F785E02D20E931E03A8329830091090464
:1052A00010910A0420910B0430910C040B831C8391
:1052B0002D833E83BE016F5F7F4FDECF4FE050E016
:1052C000B801C7010E943503AC01455051096091F6
:1052D000F2037091F30380E10E94B5080E94A908CF
:1052E0006093FC037093FD038093FE039093FF0390
:1052F000609300047093010480930204909303046C
:105300008091F0039091F103DC01ED91FC91008418
:10531000F185E02D0995892B21F50E94A9080091BE
:1053200000041091010420910204309103046B01E8
:105330007C01C01AD10AE20AF30A2091F8033091E5
:10534000F903A8EEB3E00E949130C616D706E8062E
:10535000F906B0F28CEF9FEF90931404809313043E
:105360001DCFCE0108960E94630964307105810546
:10537000910509F013CFE091F203F091F3038381DB
:1053800090E08111E9CF0E94A90860930004709316
:105390000104809302049093030410920404109279
:1053A0001404109213040091DA031091DB03E090CF
:1053B000F403F090F503B701C8010E94F32E011524
:1053C0001105D9F10996E816F906B8F10E945703BC
:1053D000882399F18091FA039091FB03019609F4D7
:1053E00060C19093FB038093FA03E091F203F09184
:1053F000F3038091FB038583E091F203F091F303C3
:105400008091FA0386836091F2037091F30347E081
:1054100050E0C8010E943503E091F203F091F303DC
:10542000E80FF91F1082AC01445051096091F2035A
:105430007091F30382E80E94B5086CE172E0CE013E
:1054400001960E948D12CE0101960E947D10CE0120
:1054500001960E94540F0E945703882309F4A9CE95
:105460000E94A9086B017C012091F6033091F7039B
:10547000A8EEB3E00E949130009100041091010465
:10548000209102043091030446015701801A910AC9
:10549000A20AB30A95018401601771078207930776
:1054A000A8F00091FC031091FD032091FE033091C0
:1054B000FF0346015701801A910AA20AB30A950117
:1054C0008401601771078207930798F5809104049F
:1054D000811140CFE091F203F091F30380EC8083DF
:1054E000E091F203F091F30311828091F003909127
:1054F000F1036091F2037091F303DC01ED91FC91F3
:105500000280F381E02D42E050E00995C092FC0357
:10551000D092FD03E092FE03F092FF03C0920004DC
:10552000D0920104E0920204F092030481E080939F
:1055300004048091F0039091F103DC01ED91FC9162
:105540000084F185E02D0995892B09F432CECE0136
:1055500001960E9463094B01672B09F4DEC0C092DB
:105560000004D0920104E0920204F0920304E0915E
:10557000F203F091F3038081807F803309F0ACC0A7
:105580008091050490910604892B09F412CE49817B
:1055900050E0CA0102968E0F9F1FDF01A40FB51FB6
:1055A00011966C90712C762C6624DC016C91660E41
:1055B000711C4D5F5F4FBF01640F751FA3010E94F7
:1055C0001C33E9818091F2039091F303860D971DBE
:1055D000E80FF92FF11D1282A091F203B091F303AD
:1055E000298130E02901E2E04E0E511C4A0E5B1E7B
:1055F0001C911670E0910504F0910604FD8BEC8B74
:10560000123009F055C0C301820F931FFD01E80F4E
:10561000F91F638170E0762F66272480260E372ECF
:10562000311C4BEF5FEF421B530B46195709480DD6
:10563000591DBC016B5F7F4F6A0F7B1FC201EC8954
:10564000FD890995E091F203F091F30380E48083F2
:10565000E091F203F091F3031183E091F203F091F2
:10566000F3033282E091F203F091F30323828091FD
:10567000F0039091F1036091F2037091F303DC0168
:10568000ED91FC910280F381E02D44E050E009951A
:10569000C092FC03D092FD03E092FE03F092FF0360
:1056A00088CDE1E0F0E0F093FB03E093FA039DCEB8
:1056B0004DEF5FEF421B530B46195709480D591D1B
:1056C0002D5F3F4F260D371DBD01620F731FC201B5
:1056D000EC89FD8909956DCD803CC9F480ED80830E
:1056E000E091F203F091F30311828091F003909125
:1056F000F1036091F2037091F303DC01ED91FC91F1
:105700000280F381E02D42E050E0099552CD803DCA
:1057100009F04FCD109204044CCD0E94570349CD9F
:105720003DE0832E912C9092A8028092A702809156
:10573000AB029091AC02419721F481E095E00E9488
:105740006F0E25E0A22EB12CB092BA02A092B9023F
:1057500065CD81EA92E00E94F70E882309F408CB18
:105760001092A3041092A4041092A5041092A6040F
:1057700080918F049091900497FDDFC02EE1F89402
:10578000E091A804F091A90492818091A7048095EA
:1057900089238283E091AB04F091AC0491818091E4
:1057A000AA04809589238183E091AB04F091AC0435
:1057B00092818091AA04809589238283E091AB0431
:1057C000F091AC0481819091AA04892B8183E091AE
:1057D000AB04F091AC0492818091AA048095892356
:1057E000828383E290E00197F1F7E091AB04F091BE
:1057F000AC0491818091AA04809589238183E091F2
:10580000AB04F091AC0492818091AA048095892325
:105810008283E091A804F091A90482819091A70469
:10582000892B82837894E091AB04F091AC041091C1
:10583000AA04409197045091980460919904709142
:105840009A0430818091A3049091A404A091A504AE
:10585000B091A604312389F484179507A607B707EA
:1058600060F40196A11DB11D8093A3049093A4043C
:10587000A093A504B093A604E4CF481759076A077C
:105880007B0708F45AC0F894E091AB04F091AC04A3
:1058900082819091AA04892B8283E091AB04F091DC
:1058A000AC0481819091AA04892B8183E091AB049F
:1058B000F091AC0482819091AA04892B8283E091BB
:1058C000AB04F091AC0491818091AA048095892366
:1058D0008183E091AB04F091AC0492818091AA04A1
:1058E000809589238283E091A804F091A904928194
:1058F0008091A7048095892382837894E091AB04FA
:10590000F091AC043091AA0440919704509198040E
:105910006091990470919A0410818091A3049091F0
:10592000A404A091A504B091A6041323D9F0841770
:105930009507A607B70708F4ECC00E94D71C809112
:10594000AB029091AC02409709F012CA62E673E094
:10595000CE0101960E942814BE016F5F7F4F8DEA31
:1059600094E0BFCB84179507A607B70730F72150FF
:1059700009F005CF0E94A90800919F041091A0048E
:105980002091A1043091A204601B710B820B930B38
:1059900000919B0410919C0420919D0430919E04E1
:1059A000061717072807390708F043C0C090A3045B
:1059B000D090A404E090A504F090A6046091910416
:1059C000709192048091930490919404C616D70626
:1059D000E806F90609F4A9C0C61AD70AE80AF90ABE
:1059E0000E94512F2DEC3CEC4CEC5DE30E948E2F7D
:1059F0000E94A030072E000C880B990BC616D70604
:105A0000E806F906B0F48FEF9FEFAFEFBFE08093A9
:105A1000910490939204A0939304B09394040E94F1
:105A2000A90860939F047093A0048093A1049093AD
:105A3000A2048091A3049091A404A091A504B09124
:105A4000A604409191045091920460919304709146
:105A5000940484179507A607B70740F48093910430
:105A600090939204A0939304B09394044091910472
:105A7000509192046091930470919404841B950B4F
:105A8000A60BB70B81379741A105B1050CF455CF93
:105A900080919F029091A00201969093A002809322
:105AA0009F022091AB023091AC022131310509F007
:105AB00040C00297C1F49EE0892E912C90929E02E4
:105AC00080929D0260E273E0CE0101960E9428144C
:105AD000BE016F5F7F4F81E095E00E94EA12CE0128
